:100000000C9461010C946C0C0C94410C0C94160C27
:100010000C94EB0B0C94C00B0C94950B0C946A0B8A
:100020000C943F0B0C9492010C9492010C9492014D
:100030000C9492010C9492010C9492010C949201F4
:100040000C9492010C9492010C9492010C949201E4
:100050000C9492010C9492010C9492010C94F50A68
:100060000C9492010C94C10C0C94970C0C9492017A
:100070000C9492010C9492010C9492010C949201B4
:100080000C9492010C9492010C9492010C949201A4
:100090000C9492010C9492010C9492010C94920194
:1000A0000C9492010C9492010C9492010C94920184
:1000B0000C9492010C9492010C9492010C94920174
:1000C0000C9492010C9492010C9492010C94920164
:1000D0000C9492010C9492010C9492010C94920154
:1000E0000C9492010C9404030C94C5090C94BB016C
:1000F0000C94FA010C94E2030C9482040C94830493
:100100000C94DE010C94D1020C94E8010C94F601DD
:100110000C94DA010C94F0010C94C9020C94630362
:100120000C94B6060C94FC020C9418060C94C309AB
:100130000C94D4010C94EC010C94BF040C94220395
:100140000C94E0050C9465060C94E2010C94B50146
:100150000C9445030C94F70C0C94E0020C943103BE
:100160000C94B0040C94EA020C940E030C94C3019A
:100170000C9459030C94F4020C94C7010C940505DB
:100180000C94BF010C943B030C9418030C94D00105
:100190000C944F030C94CA010C94F5010C94D602F4
:1001A00000002100240027002A002D003000330029
:1001B00001010000040107010A01000022002500DE
:1001C00028002B002E003100340002010000050140
:1001D00008010B01000020002300260029002C004C
:1001E0002F0032000001000003010601090105058E
:1001F0000505070508080808020202020A0A08089D
:1002000004040404010101010101010103030303CA
:1002100003030303040707070C0C0C0C0C0C0C0C59
:100220000202020206060606060606060B0B0B0B6A
:100230000B0B0B0B0102102020080810204010208F
:10024000408002010201080402010102040810209A
:100250004080804020100804020180040201804098
:100260002010080402010804020101020408102001
:100270004080010204081020408000000A0B02099F
:100280000C0D0E0807030401000000000000000030
:10029000000000000000000000000000000000005E
:1002A000000000000000121110000000000000001B
:1002B000000000000000000000000000000000003E
:1002C000F70C11241FBECFEFD1E2DEBFCDBF00E09F
:1002D0000CBF24E0A0E1B3E001C01D92AC35B20731
:1002E000E1F713E0A0E0B2E0E6EFF9E300E00BBFD6
:1002F00002C007900D92A031B107D9F711E0C1E615
:10030000D1E000E006C021970109802FFE010E9484
:100310009F19C036D10780E00807A9F70E949D0DFC
:100320000C94F91C0C9400008CBD9DBD0895815067
:10033000823108F05AC0E82FF0E08827ED55FE4FD3
:100340008F4F0C949F19C301C701B501BB01BF01B9
:10035000F501CA01D001D401DA01DE01E201E801B0
:10036000EC01F501F001F601FA01809180008F7730
:10037000809380000895809180008F7DF9CF8091D7
:100380008000877FF5CF84B58F7784BD089584B5CD
:100390008F7DFBCF8091B0008F778093B000089560
:1003A0008091B0008F7DF9CF809190008F778093FE
:1003B00090000895809190008F7DF9CF80919000FA
:1003C000877FF5CF8091A0008F778093A00008955C
:1003D0008091A0008F7DF9CF8091A000877FF5CF1D
:1003E000809120018F7780932001089580912001D2
:1003F0008F7DF9CF80912001877FF5CFCF93DF9359
:10040000282F30E0F901E658FD4F8491F901EC5CAA
:10041000FD4FD491F901E251FE4FC491CC23A1F0DC
:1004200081110E949701EC2FF0E0EE0FFF1FEC52BC
:10043000FE4FA591B491EC91ED2381E090E009F499
:1004400080E0DF91CF91089580E090E0FACF1F9394
:10045000CF93DF93282F30E0F901E658FD4F8491C8
:10046000F901EC5CFD4FD491F901E251FE4FC491CA
:10047000CC23A9F0162F81110E949701EC2FF0E0F8
:10048000EE0FFF1FE654FE4FA591B4918FB7F8947D
:10049000EC91111108C0D095DE23DC938FBFDF9162
:1004A000CF911F910895DE2BF8CFCF93DF9390E08B
:1004B000FC01EC5CFD4F249182519E4FFC01849124
:1004C0008823C9F090E0880F991FFC01E056FE4F89
:1004D000A591B491FC01E654FE4FC591D4916111F0
:1004E0000DC09FB7F8948C91209582238C938881BE
:1004F000282328839FBFDF91CF910895623051F464
:100500009FB7F8943C91822F809583238C93E88148
:100510002E2BEFCF8FB7F894EC912E2B2C938FBF0F
:10052000EACF1F93CF93DF93182FEB0161E00E9476
:100530005502209739F460E0812FDF91CF911F9110
:100540000C942702CF3FD10511F461E0F5CFE12FE4
:10055000F0E0E658FD4FE491E150E23108F0B3C01D
:10056000F0E08827E954FD4F8F4F0C949F19C90282
:10057000D102D602E002EA026303F402FC020403A1
:100580000E031803220331033B03630345034F03A8
:10059000590384B5806884BDC7BDDF91CF911F9199
:1005A000089584B5806284BDC8BDF7CF8091800076
:1005B000806880938000D0938900C0938800EDCF3D
:1005C00080918000806280938000D0938B00C093E4
:1005D0008A00E3CF80918000886080938000D09370
:1005E0008D00C0938C00D9CF8091B000806880933B
:1005F000B000C093B300D1CF8091B00080628093EF
:10060000B000C093B400C9CF8091900080688093FF
:100610009000D0939900C0939800BFCF8091900034
:10062000806280939000D0939B00C0939A00B5CFD6
:1006300080919000886080939000D0939D00C0933B
:100640009C00ABCF8091A00080688093A000809137
:10065000A0008F7B8093A000D093A900C093A80036
:100660009CCF8091A00080628093A000D093AB00CB
:10067000C093AA0092CF8091A00088608093A000D0
:10068000D093AD00C093AC0088CF809120018068EA
:1006900080932001D0932901C09328017ECF8091BF
:1006A0002001806280932001D0932B01C0932A0106
:1006B00074CF80912001886080932001D0932D0118
:1006C000C0932C016ACFC038D1050CF03ECF33CF98
:1006D00090917B00977F90937B00865380648093FA
:1006E0007C0080917A00806480937A0080917A0007
:1006F00086FDFCCF809178009091790008953FB7F6
:10070000F8948091900390919103A0919203B091FD
:10071000930326B5A89B05C02F3F19F00196A11D94
:10072000B11D3FBFBA2FA92F982F8827BC01CD013B
:10073000620F711D811D911D42E0660F771F881F9A
:10074000991F4A95D1F708958F929F92AF92BF92C9
:10075000CF92DF92EF92FF924B015C010E947F03E8
:100760006B017C010E947F036C197D098E099F0932
:10077000683E734081059105A8F321E0821A910833
:10078000A108B10888EEC80E83E0D81EE11CF11C58
:1007900081149104A104B10429F7FF90EF90DF9038
:1007A000CF90BF90AF909F908F9008952FB7F894FF
:1007B00060918C0370918D0380918E0390918F03D3
:1007C0002FBF0895CF92DF92EF92FF920F931F9366
:1007D000CF93DF9384E00E94FE01EC010E94D603D8
:1007E00000911503109116032091170330911803FF
:1007F0006B017C01C01AD10AE20AF30A9701860153
:10080000053111052105310550F0109211031092A8
:1008100012031092130310921403109210036093AA
:100820001503709316038093170390931803209178
:100830001003293160F52F5F20931003CD2B89F031
:100840008091110390911203A0911303B0911403AE
:10085000B0688093110390931203A0931303B09395
:1008600014038091110390911203A0911303B0918E
:1008700014032731A9F0B695A7959795879580938E
:10088000110390931203A0931303B0931403DF9109
:10089000CF911F910F91FF90EF90DF90CF9008952F
:1008A00029E0B695A795979587952A95D1F78093D6
:1008B000110390931203A0931303B0931403AC019C
:1008C000BD016F707727A4FF07C0709560955095A4
:1008D00041955F4F6F4F7F4F409322035093230307
:1008E00060932403709325030E94D60360932F0323
:1008F00070933003809331039093320381E08093AF
:100900002603C5CF0895AF92BF92CF92DF92EF92A8
:10091000FF920F931F93CF93DF936C017B018B01A9
:10092000040F151FEB015E01AE18BF08C017D107F9
:1009300059F06991D601ED91FC910190F081E02D83
:10094000C6011995892B79F7C501DF91CF911F91C8
:100950000F91FF90EF90DF90CF90BF90AF900895F0
:10096000FC01538D448D252F30E0842F90E0821BB5
:10097000930B541710F0CF96089501970895FC013A
:10098000918D828D981761F0A28DAE0FBF2FB11D92
:100990005D968C91928D9F5F9F73928F90E00895EA
:1009A0008FEF9FEF08950F931F930E94D6036093DC
:1009B0009C0370939D0380939E0390939F0384E90F
:1009C00093E00E94BF0497FF1DC00E94D6030091D0
:1009D0009C0310919D0320919E0330919F03601B07
:1009E000710B820B930B0091980310919903209146
:1009F0009A0330919B036017710782079307F8F2FF
:100A00008FEF9FEF1F910F910895FC01918D828DC3
:100A1000981731F0828DE80FF11D858D90E00895D3
:100A20008FEF9FEF08950F931F930E94D60360935B
:100A30009C0370939D0380939E0390939F0384E98E
:100A400093E00E94050597FF1DC00E94D603009108
:100A50009C0310919D0320919E0330919F03601B86
:100A6000710B820B930B00919803109199032091C5
:100A70009A0330919B036017710782079307F8F27E
:100A80008FEF9FEF1F910F9108958F929F92AF92DA
:100A9000BF92CF92DF92EF92FF92CF93DF930E94AB
:100AA0001305FC0197FD88C08D32910509F04CC0FB
:100AB000812C912C80E8A82E8FE3B82EC12CD12C4C
:100AC0007601C0E0D0E0E130F10559F1ED32F105F9
:100AD00009F447C0EE32F10509F445C0CF01C097D3
:100AE0000A97F8F4AAE0B0E0A70196010E94301935
:100AF0006F01FF0FEE08FF08C60ED71EE81EF91E95
:100B000080E3C81AD108E108F108CC2351F02DEC9C
:100B10003CEC4CEC5DE3C501B4010E945C184B0158
:100B20005C0184E993E00E94BF040E941305FC016C
:100B3000C0970A9740F2EE32F105B9F4CC2319F2CE
:100B4000CD2FD11118C025C0C0970A9708F4B0CF97
:100B5000EE32F10509F4ACCF84E993E00E94BF04C2
:100B60009ECFD1E0DECFC1E0DCCFE130F10509F46A
:100B7000AACFDD2341F0F094E094D094C094C11C3E
:100B8000D11CE11CF11CC701B6010E94FD17CC234A
:100B900041F0C701B6010E94FD17A50194010E9412
:100BA0005C18DF91CF91FF90EF90DF90CF90BF90D6
:100BB000AF909F908F90089560E070E0CB01F1CFEF
:100BC000FC01918D228D892F90E0805C9F4F821BCC
:100BD00091098F739927089584E993E00E94E005B5
:100BE00021E0892B09F420E0822F0895FC01A48DD7
:100BF000A80FB92FB11DA35ABF4F2C91848D90E03F
:100C000001968F739927848FA689B7892C93A08921
:100C1000B1898C91837080648C93938D848D9813AB
:100C200006C00288F389E02D80818F7D808308953E
:100C3000EF92FF920F931F93CF93DF93EC0181E02C
:100C4000888F9B8D8C8D98131AC0E889F9898081D3
:100C500085FF15C09FB7F894EE89FF896083E88906
:100C6000F98980818370806480839FBF81E090E0F8
:100C7000DF91CF911F910F91FF90EF900895F62E85
:100C80000B8D10E00F5F1F4F0F731127E02E8C8D1F
:100C90008E110CC00FB607FCFACFE889F989808164
:100CA00085FFF5CFCE010E94F605F1CFEB8DEC0F5D
:100CB000FD2FF11DE35AFF4FF0829FB7F8940B8F81
:100CC000EA89FB8980818062CFCFCF93DF93EC01EB
:100CD000888D8823B9F0AA89BB89E889F9898C9124
:100CE00085FD03C0808186FD0DC00FB607FCF7CFE0
:100CF0008C9185FFF2CF808185FFEDCFCE010E94E0
:100D0000F605E9CFDF91CF91089580E090E0892B3F
:100D100029F00E94EC0581110E94000080E090E023
:100D2000892B49F080E090E0892B29F00E94000097
:100D300081110E94000080E090E0892B49F080E062
:100D400090E0892B29F00E94000081110E94000090
:100D500080E090E0892B49F080E090E0892B29F039
:100D60000E94000081110C940000089508950895D8
:100D70008EBD00000DB407FEFDCF8EB50895EF9235
:100D8000FF920F931F93CF93DF938B01811184E028
:100D9000282F30E0C9010196E901CB5CDB4F00311F
:100DA00057E215075CF129E829838B5C9B4FFC0116
:100DB00021832B832C8380E591E00E94940106E33C
:100DC00014E0C1E060E0809135040E9427028C2F7E
:100DD0000E94B806F80181918F010E94B80661E077
:100DE000809135040E942702CF5FC93059F7DF9107
:100DF000CF911F910F91FF90EF9008950931FCEF73
:100E00001F0734F42AE829838B5C9B4F29E8CFCF56
:100E100017FF2CC08AE08983119501951109EAE03A
:100E2000F0E0C801BF010E944A19EC01CB01BF01EB
:100E30000E944A19F82EE92EC80164E670E00E946B
:100E40004A19CB01BF010E944A19D901AB5CBB4FC3
:100E500061E070E0E3E0F0E0E41BF1095FE06E17B1
:100E60007F07C4F012968C93129720C0C80168EED9
:100E700073E00E944A196115710519F48FE08983A6
:100E8000CECF6983CCCF8F2D9E2D6230710539F383
:100E9000CE01E5CF009731F711964C9111974F3065
:100EA00011F04A30F9F612965C9312976F5F7F4FFC
:100EB00011966430710539F7E20FF31FEB5CFB4FBD
:100EC00081818068818377CF0F931F93CF93C82F41
:100ED00080E591E00E94940105E314E060E0F801F0
:100EE00080810E9427028AE00E94B8068C2F0E940F
:100EF000B80661E0F80180810E9427028C2FCF9113
:100F00001F910F9108951F93CF93DF93182F80E5C2
:100F100091E00E949401C5E3D4E060E088810E94E2
:100F200027028FE00E94B806812F0E94B80661E078
:100F30008881DF91CF911F910C942702CF93DF938B
:100F4000EB010E94FE01892B71F4C130D10531F013
:100F500088F0C230D10571F0239779F482E090E0F7
:100F6000DF91CF910895209711F0229731F483E01B
:100F700090E0F6CF90E080E0F3CF81E090E0F0CF1A
:100F8000FF920F931F93CF93DF93F82E062FC7E0A6
:100F9000D0E010E061E0802F0E9427028F2D0E9498
:100FA000FE010C2E01C0880F0A94EAF7182B60E0AE
:100FB000802F0E942702219768F7812FDF91CF9120
:100FC0001F910F91FF900895EF92FF920F931F933F
:100FD000CF93809141040E94FE01892BD1F760914B
:100FE0004004809141040E94C007082F6091400492
:100FF000809141040E94C007C82F609140048091F5
:1010000041040E94C007182FF12CE12C809142046A
:101010008E151F0479F070F061E0809140040E9409
:10102000270260E0809140040E9427028FEFE81AB7
:10103000F80AECCF6C2F70E090E080E0982F872FBB
:10104000762F6627802B612B000F000B10E030E01D
:1010500020E0302F222711270027602B712B822BB5
:10106000932BCF911F910F91FF90EF900895CF9206
:10107000DF92EF92FF92CF93CAE0C12CD12C760180
:101080000E94E407C60ED71EE81EF91EC150C1F724
:10109000C701B6012AE030E040E050E00E9480192C
:1010A000CA01B9010E94FD170E949A1A6093430475
:1010B000709344048093450490934604CF91FF902D
:1010C000EF90DF90CF900895FC0101900020E9F7A8
:1010D0003197AF01481B590BBC0184E993E00C9494
:1010E00083048F929F92AF92BF920F931F93CF93DF
:1010F000DF93CDB7DEB7A1970FB6F894DEBF0FBE72
:10110000CDBF19A2423008F44AE08E010F5D1F4F97
:10111000842E912CB12CA12CA50194010E945E1962
:10112000E62FB901CA01EA30F4F4E05DD801EE938C
:101130008D01232B242B252B79F790E080E010974D
:1011400019F0CD010E946408A1960FB6F894DEBF95
:101150000FBECDBFDF91CF911F910F91BF90AF9088
:101160009F908F900895E95CE1CFCF92DF92EF924C
:10117000FF92CF93DF936C01990FEE08FF08F7FE03
:1011800019C06DE284E993E00E941806EC0166271D
:101190007727CB016C197D098E099F094AE00E94CF
:1011A00071088C0F9D1FDF91CF91FF90EF90DF9022
:1011B000CF9008954AE0C701B601DF91CF91FF902B
:1011C000EF90DF90CF900C9471080C9464084F92CC
:1011D0005F926F927F928F929F92AF92BF92CF92C7
:1011E000DF92EF92FF920F931F93CF936B017C01DD
:1011F000742EAC019B010E94D51A882399F08DE4CE
:1012000092E0CF911F910F91FF90EF90DF90CF90E0
:10121000BF90AF909F908F907F906F905F904F9016
:101220000C94640846015701E894B7F82FEF3FEF9C
:101230004FE75FE7C501B4010E94D51A81110DC0C7
:101240002FEF3FEF4FE75FE7C501B4010E94F617AC
:1012500018161CF481E592E0D4CF2FEF3FEF4FE753
:101260005FE4C701B6010E94D01A18161CF485E588
:1012700092E0C7CF2FEF3FEF4FE75FECC701B6011A
:101280000E94F61787FDF3CF20E030E0A901C701E7
:10129000B6010E94F61710E000E087FF0AC06DE279
:1012A00084E993E00E9418068C01F7FAF094F7F8AD
:1012B000F094C0E060E070E080E09FE37C1641F0D5
:1012C00020E030E040E251E40E94281ACF5FF6CFE0
:1012D000A70196010E94BC192B013C010E94A11A92
:1012E0004B015C014AE00E9471087C01E00EF11E96
:1012F000CC23C1F1C501B4010E94FB179B01AC01D5
:10130000C301B2010E94BB194B015C016EE284E98A
:1013100093E00E941806E80EF91EC15018F120E073
:1013200030E040E251E4C501B4010E945C182B0199
:101330003C010E94A11A4B01B12CA12C4AE0C5012D
:10134000B4010E947108E80EF91EC501B4010E94A3
:10135000FB179B01AC01C301B2010E94BB194B01F9
:101360005C01DBCFC701CF911F910F91FF90EF90F0
:10137000DF90CF90BF90AF909F908F907F906F90B5
:101380005F904F9008950C94761B0C94761BCF922F
:10139000DF92EF92FF920F931F93CF93DF93EB01B6
:1013A0007B0124E0E20EF11C8B016C01C61AD70A06
:1013B000C601800F911F0E941A19F80181938F01B5
:1013C000EE15FF05A9F7CE01DF91CF911F910F9187
:1013D000FF90EF90DF90CF9008950F931F93CF93DE
:1013E000DF93EC0188819981009759F02A813B8134
:1013F0002617370730F081E0DF91CF911F910F91D1
:1014000008958B016F5F7F4F0E94FF1B009759F07B
:10141000998388831B830A832C813D81232B59F771
:10142000FC011082E8CF80E0E7CFEF92FF920F93AC
:101430001F93CF93DF931F921F92CDB7DEB78C011E
:10144000FC0111821082138212821582148270E0D4
:1014500060E00E94ED09F80120813181811132C0E4
:101460002115310519F0C9010E94761BF80111827E
:10147000108215821482138212820E94D30497FD77
:1014800029C08A30910531F189831A82F801E480FC
:10149000F580FFEFEF1AFF0AB701C8010E94ED09BE
:1014A000882359F3F8012081318184819581BE011F
:1014B0006F5F7F4F820F931F0E94F21CF801F5822D
:1014C000E482DBCF158214826FE073E0C9010E94D1
:1014D000F21CD3CFC8010F900F90DF91CF911F91D5
:1014E0000F91FF90EF900895FF920F931F93CF936A
:1014F000DF93EC01F62E08811981C8010E941A19A8
:10150000F81621F06F2DC8010E942219CE01DF913B
:10151000CF911F910F91FF900895AF92BF92CF92FC
:10152000DF92EF92FF920F931F93CF93DF931F925F
:101530001F92CDB7DEB78B016B0124E0C20ED11C28
:101540007B015C01A61AB70AC5018E0D9F1D9A8307
:101550008983F70161917F01CE0101960E94740A8F
:10156000EC14FD0489F7C8010F900F90DF91CF9123
:101570001F910F91FF90EF90DF90CF90BF90AF90B1
:101580000895AF92BF92CF92DF92EF92FF920F93A6
:101590001F93CF93DF931F921F92CDB7DEB78B01BE
:1015A0006B0124E0C20ED11C7B015C01A61AB70AB4
:1015B000C5018E0D9F1D9A838983F70161917F017B
:1015C000CE0101960E94740AEC14FD0489F7C8014B
:1015D0000F900F90DF91CF911F910F91FF90EF909F
:1015E000DF90CF90BF90AF9008951F920F920FB6EB
:1015F0000F9211242F933F938F939F93AF93BF9399
:1016000080918C0390918D03A0918E03B0918F03F4
:1016100030918B0323E0230F2D3758F50196A11D40
:10162000B11D20938B0380938C0390938D03A09323
:101630008E03B0938F038091900390919103A091BA
:101640009203B09193030196A11DB11D8093900365
:1016500090939103A0939203B0939303BF91AF91A2
:101660009F918F913F912F910F900FBE0F901F90E0
:10167000189526E8230F0296A11DB11DD2CF1F9207
:101680000F920FB60F9211240BB60F922F933F9328
:101690004F935F936F937F938F939F93AF93BF937A
:1016A000EF93FF93E0910E02F0910F021995FF91D5
:1016B000EF91BF91AF919F918F917F916F915F91CA
:1016C0004F913F912F910F900BBE0F900FBE0F9037
:1016D0001F9018951F920F920FB60F9211240BB600
:1016E0000F922F933F934F935F936F937F938F93BB
:1016F0009F93AF93BF93EF93FF93E0910C02F09110
:101700000D021995FF91EF91BF91AF919F918F912C
:101710007F916F915F914F913F912F910F900BBEF1
:101720000F900FBE0F901F9018951F920F920FB63B
:101730000F9211240BB60F922F933F934F935F9309
:101740006F937F938F939F93AF93BF93EF93FF9389
:10175000E0910202F09103021995FF91EF91BF9180
:10176000AF919F918F917F916F915F914F913F9139
:101770002F910F900BBE0F900FBE0F901F901895DA
:101780001F920F920FB60F9211240BB60F922F9348
:101790003F934F935F936F937F938F939F93AF93F9
:1017A000BF93EF93FF93E0910002F091010219952E
:1017B000FF91EF91BF91AF919F918F917F916F9129
:1017C0005F914F913F912F910F900BBE0F900FBEE5
:1017D0000F901F9018951F920F920FB60F92112421
:1017E0000BB60F922F933F934F935F936F937F931B
:1017F0008F939F93AF93BF93EF93FF93E0910A0270
:10180000F0910B021995FF91EF91BF91AF919F91CC
:101810008F917F916F915F914F913F912F910F9099
:101820000BBE0F900FBE0F901F9018951F920F9236
:101830000FB60F9211240BB60F922F933F934F9335
:101840005F936F937F938F939F93AF93BF93EF9328
:10185000FF93E0910802F09109021995FF91EF9131
:10186000BF91AF919F918F917F916F915F914F91B8
:101870003F912F910F900BBE0F900FBE0F901F90B6
:1018800018951F920F920FB60F9211240BB60F925C
:101890002F933F934F935F936F937F938F939F9378
:1018A000AF93BF93EF93FF93E0910602F09107028D
:1018B0001995FF91EF91BF91AF919F918F917F917A
:1018C0006F915F914F913F912F910F900BBE0F90B1
:1018D0000FBE0F901F9018951F920F920FB60F9288
:1018E00011240BB60F922F933F934F935F936F93F7
:1018F0007F938F939F93AF93BF93EF93FF93E09169
:101900000402F09105021995FF91EF91BF91AF91FB
:101910009F918F917F916F915F914F913F912F9107
:101920000F900BBE0F900FBE0F901F9018951F9237
:101930000F920FB60F9211240BB60F922F933F9375
:101940004F935F936F937F938F939F93AF93BF93C7
:10195000EF93FF9384E993E00E94F605FF91EF91E6
:10196000BF91AF919F918F917F916F915F914F91B7
:101970003F912F910F900BBE0F900FBE0F901F90B5
:1019800018951F920F920FB60F9211240BB60F925B
:101990002F938F939F93EF93FF93E091A403F09184
:1019A000A5038081E091AA03F091AB0382FD1DC0E5
:1019B00090818091AD038F5F8F732091AE0382176A
:1019C00041F0E091AD03F0E0EC56FC4F958F809331
:1019D000AD03FF91EF919F918F912F910F900BBECF
:1019E0000F900FBE0F901F9018958081F2CFCF926D
:1019F000DF92EF92FF92CF93DF93E4E9F3E013825B
:101A0000128288EE93E0A0E0B0E084839583A68301
:101A1000B7838FE292E09183808385EC90E0958795
:101A2000848784EC90E09787868780EC90E0918BA8
:101A3000808B81EC90E0938B828B82EC90E0958B95
:101A4000848B86EC90E0978B868B118E128E138E92
:101A5000148ECBE4D4E089E492E0998388831D82DC
:101A60001E821F821886C12CD12C80E8E82E8FE3BD
:101A7000F82EC986DA86EB86FC8683E08A8384E0CA
:101A80008B8360E083E00E94550260E08B810E94BE
:101A90005502CEE3D4E081E492E0998388831D82ED
:101AA0001E821F821886C986DA86EB86FC8685E050
:101AB0008A8386E08B8361E085E00E94550260E0C6
:101AC0008B810E94550281E08C8360E08A810E94B4
:101AD00027020E94E407E6E3F4E088E0DF011D92BC
:101AE0008A95E9F78AE18093350461E00E94270234
:101AF00020E030E040E450E4609121027091220245
:101B000080912302909124020E94281A20E030EC58
:101B10004FE754E40E945C180E949A1A60933104C3
:101B2000709332048093330490933404DF91CF9107
:101B3000FF90EF90DF90CF900895CF93DF93CDB7D4
:101B4000DEB766970FB6F894DEBF0FBECDBF7894B0
:101B500084B5826084BD84B5816084BD85B58260B2
:101B600085BD85B5816085BD80916E008160809363
:101B70006E001092810080918100826080938100CC
:101B800080918100816080938100809180008160DC
:101B9000809380008091B10084608093B100809137
:101BA000B00081608093B00080919100826080934A
:101BB00091008091910081608093910080919000CC
:101BC0008160809390008091A10082608093A10049
:101BD0008091A10081608093A1008091A00081602C
:101BE0008093A000809121018260809321018091E7
:101BF0002101816080932101809120018160809387
:101C0000200180917A00846080937A0080917A002C
:101C1000826080937A0080917A00816080937A005C
:101C200080917A00806880937A001092C100F894C5
:101C30000E94D6030E94D60370938A03609389039F
:101C400060E083E00E94550260E084E00E9455025B
:101C500061E087E10E94550260E087E10E9427026F
:101C600061E088E10E94550260E088E10E9427025D
:101C700061E085E00E94550260E086E00E94550226
:101C800061E089E10E94550261E087E00E9455020F
:101C900061E088E00E94550261E089E00E945502FF
:101CA00060E08AE00E94550260E08BE00E945502ED
:101CB00060E08CE00E94550261E08EE00E945502D7
:101CC00061E086E10E94550261E08AE10E945502CE
:101CD00061E083E30E94550261E084E30E945502C3
:101CE00060E086E30E94550260E087E30E945502AF
:101CF00060E088E30E94550260E089E30E9455029B
:101D000062E08EE30E94550262E08FE30E9455027A
:101D100062E080E40E94550262E081E40E94550284
:101D200062E082E40E945502E091A403F091A503D1
:101D300082E08083E091A003F091A1031082E09102
:101D4000A203F091A30387E080831092AC03E0919B
:101D5000A803F091A90386E08083E091A603F091A7
:101D6000A703808180618083E091A603F091A7039F
:101D7000808188608083E091A603F091A703808131
:101D800080688083E091A603F091A70380818F7D16
:101D9000808389E592E00E94E50860E087E10E9487
:101DA000270260E088E10E94270282EE93E0909390
:101DB00003028093020280916A008C6080936A0023
:101DC000ED9A8DEC9CECA5ECB2EC809354049093CE
:101DD0005504A0935604B0935704109226038091A3
:101DE000220390912303A0912403B09125038093B3
:101DF000500490935104A0935204B09353041F8253
:101E0000188619861A8681E40E94FE01892BD1F575
:101E100082E40E94FE01892BA9F582EC92E00E94E7
:101E2000640887EE92E00E94640883EB96E7A1E8DD
:101E3000BAE789839A83AB83BC83BE016F5F7F4F10
:101E400081E090E00E94C10A60E172E085E090E0EC
:101E50000E948D0A89E090E09A83898360E0CE0138
:101E600001960E94740A8AE090E09A83898360E078
:101E7000CE0101960E94740A64E670E080E090E072
:101E80000E94A403BE01695F7F4F81E090E00E9441
:101E9000C709FC0180819181A281B381833B964770
:101EA000A148BA4709F0ABC16EE173E085E090E06C
:101EB0000E94C70989E090E00E941A1980931A03D2
:101EC0008AE090E00E941A1980931B038BE090E057
:101ED0000E941A1980931C038CE090E00E941A194A
:101EE00080931D0385E08093400486E08093410445
:101EF00061E085E00E94550260E0809141040E940B
:101F0000550281E08093420460E0809140040E9489
:101F100027020E94E40760911E0370911F038091C5
:101F20002003909121030E94FB1760934704709354
:101F300048048093490490934A0480911A03909135
:101F40001B03A0911C03B0911D0380934304909345
:101F50004404A0934504B09346040E94370860E00F
:101F60008EE00E94270261E086E10E94270261E084
:101F700070E080E090E00E94A40361E08EE00E94A7
:101F8000270281E090E090931E0280931D0287E07B
:101F900090E09093200280931F0278941FB7F894EA
:101FA00080911903811127C0E3E2F2E08491E9E610
:101FB000F2E09491E82FF0E0EE0FFF1FE056FE4FA5
:101FC000A591B491EC91E92321F461E085E30E94AD
:101FD000270261E085E30E9455028CB580618CBDCB
:101FE0008CB580648CBD61E084E30E94550261E0A1
:101FF00083E30E945502809119038F5F8093190338
:102000001FBF84E00E94640780E591E00E94940174
:1020100060E0809135040E9427028CE00E94B8069F
:1020200081E00E94B80661E0809135040E94270299
:1020300080E591E00E94940160E0809135040E9467
:10204000270289E00E94B8068FEF0E94B80661E07F
:10205000809135040E94270280E591E00E9494015E
:1020600060E0809135040E9427028BE00E94B80650
:1020700087E00E94B80661E0809135040E94270243
:1020800081E00E94830768EE73E080E090E00E94A8
:10209000A40380E00E9483078AE00E94640740E076
:1020A00070E060E080E00E94BF0661E08DE00E9489
:1020B00055028CED95E0A0E0B0E08093150290937E
:1020C0001602A0931702B09318020E94D6036093E1
:1020D0005303709354038093550390935603222423
:1020E0002394312C0E94D60370938A036093890352
:1020F0002DEC3CEC45EC52EC209354043093550409
:10210000409356045093570460918703709188035D
:1021100081E490E00E949E07909388038093870358
:10212000609185037091860380E490E00E949E0791
:102130009093860380938503609183037091840359
:102140008EE390E00E949E07909384038093830324
:1021500060918103709182038FE390E00E949E075B
:10216000909382038093810360917F037091800339
:1021700082E490E00E949E079093800380937F0307
:1021800047E050E05093200240931F0284E993E01F
:102190000E94E005892B09F49EC184E993E00E9426
:1021A000BF047C018C010F7D0635110509F442C086
:1021B00055E5E516F10409F450C084E4E816F1048D
:1021C00009F0C3C080911D0290911E0284309105D8
:1021D00011F0019741F484E090E090932002809305
:1021E0001F02109214020335110509F0DCC08FEFB5
:1021F000809314023092200220921F0295C00E9408
:10220000E40710921A0310921B0310921C03109201
:102210001D038091100290911102A0911202B091C1
:10222000130280931E0390931F03A0932003B09387
:10223000210358CE0E9445054B015C01AC019B0176
:102240000E94D51A8111B4CF80922102909222026D
:10225000A0922302B0922402B0CF80911D029091EF
:102260001E028D7F019741F483E090E0909320025D
:1022700080931F02109214020334110509F0B3CFAA
:102280000E9445056B017C010E94E4078090430495
:1022900090904404A0904504B090460468197909D0
:1022A0008A099B090E94FD17A70196010E94281A1E
:1022B0000E94A11A60931E0370931F038093200352
:1022C000909321030E94FB17609347047093480486
:1022D0008093490490934A0423EB36E741E85AE798
:1022E00029833A834B835C83BE016F5F7F4F81E01C
:1022F00090E00E94C10A6EE173E085E090E00E94E8
:10230000C10A8091430490914404A0914504B09186
:10231000460489839A83AB83BC83BE016F5F7F4F82
:1023200089E090E00E948D0A0135110509F4CBC0C7
:102330000035110509F063C03092200220921F027F
:1023400010924C0310924B03C6C092E6E916F104BA
:1023500009F046C6CE0101960E94150A8D819E8124
:10236000E980FA80892B49F06AEE72E0C7010E9489
:10237000E91CDD24D394892B09F0D12CE114F1045C
:1023800019F0C7010E94761BDD2009F475CF8091FA
:102390001D0290911E02019709F06ECF109220024B
:1023A00010921F0269CF0435110509F0BDCFCE018F
:1023B00001960E94150A8D819E81E980FA80892B01
:1023C00049F06FEE72E0C7010E94E91CDD24D3944E
:1023D000892B09F0D12CE114F10419F0C7010E94F6
:1023E000761BDD2061F080911D0290911E02892BE9
:1023F00031F088E090E09093200280931F02023534
:10240000110509F068C00E941305FC0197FD48C43E
:102410008D32910521F0C0970A9708F03AC4C12C7B
:10242000D12C760110E0E130F105D9F0ED32F10563
:1024300009F434C4CF01C0970A9798F4AAE0B0E039
:10244000A70196010E9430196F01FF0FEE08FF08E7
:10245000C60ED71EE81EF91E30E3C31AD108E108E4
:10246000F10884E993E00E94BF040E941305FC0177
:10247000C0970A97C0F2E130F105A9F2112341F0AB
:10248000F094E094D094C094C11CD11CE11CF11CC8
:10249000D701C6010197A109B109883C9105A105A1
:1024A000B105C8F468EE73E080E090E0A701960102
:1024B0000E9480192093190230931A0240931B0244
:1024C00050931C0208C03092200220921F023092CA
:1024D0004C0320924B0380911D0290911E02833089
:1024E000910509F439C408F0DFC3009709F493C4D7
:1024F0008130910509F451C400911F02109120020E
:102500000330110509F4B4C408F09BC4011511058A
:1025100009F4EAC40130110509F4CFC447E050E0E2
:102520005093200240931F0287E30E946803BC017E
:10253000990F880B990B0E94FD1729E032EF44E9AF
:1025400051E40E94281A60937B0370937C0380936C
:102550007D0390937E0386E30E946803BC01990F7C
:10256000880B990B0E94FD1729E032EF44E951E4F2
:102570000E94281A609377037093780380937903FD
:1025800090937A0388E30E946803BC01990F880B3B
:10259000990B0E94FD1720E135E34DEF52E40E94B4
:1025A000281A609373037093740380937503909358
:1025B000760389E30E946803BC01990F880B990B8D
:1025C0000E94FD1720E135E34DEF52E40E94281AE6
:1025D00060936F0370937003809371039093720301
:1025E00080912603882309F47EC01092260360910F
:1025F000220370912303809124039091250300917D
:102600005004109151042091520430915304601BE6
:10261000710B820B930B0E94FD1720915404309193
:10262000550440915604509157040E94281A4B01BA
:102630005C0180924D0390924E03A0924F03B092A2
:102640005003C0902F03D0903003E0903103F090FE
:102650003203C0924303D0924403E0924503F092C8
:10266000460320912703309128034091290350917C
:102670002A030E94BB1920E030E04AE754E40E949C
:102680005C182B013C0180912B0390912C03A091AD
:102690002D03B0912E03A7019601281B390B4A0B7D
:1026A0005B0BCA01B9010E94FD179B01AC01C3017C
:1026B000B2010E94281A60934703709348038093E5
:1026C000490390934A038092270390922803A09293
:1026D0002903B0922A03C0922B03D0922C03E092DC
:1026E0002D03F0922E0300911D0210911E02011580
:1026F000110509F022C140904303509044036090BB
:1027000045037090460380913F0390914003A09150
:102710004103B091420373016201C81AD90AEA0A5F
:10272000FB0A39E7C316D104E104F1040CF405C136
:1027300080904D0390904E03A0904F03B0905003B3
:1027400020913B0330913C0340913D0350913E0367
:10275000C501B4010E94BB196B877C878D879E875A
:1027600080923B0390923C03A0923D03B0923E03C3
:1027700040923F03509240036092410370924203A3
:10278000C701B6010E94FD174B015C0120E030E05B
:102790004AE754E46B857C858D859E850E945C1894
:1027A000A50194010E94281A6B017C0120E030E011
:1027B000A9010E94D01A181624F0F7FAF094F7F83D
:1027C000F094A701960160912102709122028091FC
:1027D0002302909124020E94BB196B017C0120E02E
:1027E00030E040EA51E40E945C180E949A1A6B871C
:1027F0007C878D879E87A701960160913703709132
:1028000038038091390390913A030E94BB1920E06C
:1028100030E048EC52E40E945C18A50194010E944B
:10282000281A0E949A1A6F87788B898B9A8B40900E
:1028300033035090340360903503709036032DECD1
:102840003CEC4CE45DE3C301B2010E945C180E94C1
:102850009A1A6B8B7C8B8D8B9E8BC0923703D09298
:102860003803E0923903F0923A03A7019601C501BB
:10287000B4010E945C18A30192010E94BC196B0173
:102880007C0120E034E244E759EC0E94F61787FD12
:102890005CC320E034E244E759E4C701B6010E947A
:1028A000D01A18163CF4C12C94E2D92E94E7E92EE4
:1028B00099E4F92EC0923303D0923403E0923503A9
:1028C000F09236038B859C85AD85BE852F85388932
:1028D00049895A89820F931FA41FB51F2B893C89F0
:1028E0004D895E89820F931FA41FB51F811534E0A7
:1028F0009307A105B1050CF430C38FEF93E0A0E07E
:10290000B0E08093310490933204A0933304B093E9
:102910003404E0903104F090320480914B039091A4
:102920004C03892B09F02CC370E060E088E00E9422
:102930009102B70189E00E949102809141040E94B6
:10294000FE01892B09F05AC0C0906B03D0906C0334
:10295000E0906D03F0906E03C0926703D09268031D
:10296000E0926903F0926A0380906303909064039D
:10297000A0906503B090660380926B0390926C0305
:10298000A0926D03B0926E030E94E407409043044E
:102990005090440460904504709046046419750991
:1029A000860997090E94FD17209147043091480439
:1029B0004091490450914A040E94281A9B01AC019D
:1029C000209363033093640340936503509366033D
:1029D000C501B4010E94BC19A70196010E94BC194F
:1029E00020E030E040E450E40E94281A60935F0346
:1029F0007093600380936103909362030E94D603F7
:102A0000AB01BC0180915B0390915C03A0915D03DD
:102A1000B0915E03C0901902D0901A02E0901B02A0
:102A2000F0901C028C0D9D1DAE1DBF1D481759074F
:102A30006A077B0720F40830110509F0E7C00E94FF
:102A4000D60360935B0370935C0380935D03909364
:102A50005E0380914B0390914C030E94B5088EE079
:102A600093E00E94E50860914D0370914E038091C0
:102A70004F039091500342E00E94E7088EE093E0FC
:102A80000E94E50860915F0370916003809161038B
:102A90009091620342E00E94E7088EE093E00E947A
:102AA000E508609147037091480380914903909134
:102AB0004A0342E00E94E7088EE093E00E94E508A6
:102AC0006091210270912202809123029091240250
:102AD00042E00E94E7088EE093E00E94E5088091C2
:102AE0001D0290911E020E94B5088EE093E00E94A4
:102AF000E508609173037091740380917503909160
:102B0000760342E00E94E7088EE093E00E94E50829
:102B100060916F03709170038091710390917203C3
:102B200042E00E94E7088EE093E00E94E508809171
:102B30008303909184030E94B5088EE093E00E9485
:102B4000E50880918103909182030E94B5088EE090
:102B500093E00E94E50880918503909186030E948E
:102B6000B5088EE093E00E94E5088091870390917C
:102B700088030E94B5088EE093E00E94E5088091EA
:102B80007F03909180030E94B5088EE093E00E943D
:102B9000E50860917B0370917C0380917D039091A7
:102BA0007E0342E00E94E7088EE093E00E94E50881
:102BB00060917703709178038091790390917A0303
:102BC00042E00E94E7088EE093E00E94E5080E9440
:102BD000D603009157031091580320915903309167
:102BE0005A03601B710B820B930B4AE00E94710821
:102BF00088EE92E00E94E5080E94D6036093570396
:102C0000709358038093590390935A03C090150210
:102C1000D0901602E0901702F090180261E0F7FCE5
:102C200007C0C114D104E104F10409F0B0C160E0AF
:102C30008DE00E94270260915F0370916003809194
:102C40006103909162030E949A1A40E080E00E9422
:102C5000BF0620E030E040E251E460914D03709106
:102C60004E0380914F03909150030E945C180E9484
:102C70009A1A41E081E00E94BF0680915103909131
:102C80005203019690935203809351030E9485064C
:102C900029CA84E993E00E94BF04B5CB11E0E1CBDF
:102CA000C12CD12C7601F4CB8430910509F46CC091
:102CB000089709F021CC83EF92E00E94640887EE28
:102CC00092E00E9464080E943708109226038091C7
:102CD000220390912303A0912403B09125038093B4
:102CE000500490935104A0935204B0935304109253
:102CF0004D0310924E0310924F0310925003109206
:102D00002703109228031092290310922A0310928D
:102D10005F0310926003109261031092620310929D
:102D2000630310926403109265031092660310927D
:102D30006B0310926C0310926D0310926E0310924D
:102D40006703109268031092690310926A0389E581
:102D500092E00E94E50813C0209114022A3F40F43B
:102D60002F5F209314029093200280931F02C4CB04
:102D70008091830390918403019709F0BDCB309239
:102D8000200220921F02B8CB209114022A3F40F368
:102D90008091810390918203EFCF20917F03309146
:102DA00080032230310551F420914B0330914C03C4
:102DB000232B71F490934C0380934B0380918303F6
:102DC000909184038D7F892B41F483E090E0CBCFF9
:102DD00010924C0310924B03F1CF8091810390919C
:102DE00082038D7F892B19F484E090E0BCCF809121
:102DF000850390918603029719F488E090E0B3CFA1
:102E00008091870390918803029729F41092200201
:102E100010921F0271CB80918303909184030297DB
:102E200009F4ADCF8091810390918203029709F458
:102E3000A6CF80917F0390918003029709F05CCB2D
:102E40009ECF0430110571F10830110509F066CBF1
:102E500010931E0200931D022FEF3FEFA901209354
:102E6000150230931602409317025093180256CB66
:102E700070E060E088E00E9491026FEF73E089E00B
:102E80000E94910210931E0200931D028FEF9FEF8C
:102E9000DC018093150290931602A0931702B09361
:102EA00018023CCB6FEF73E088E00E94910270E063
:102EB00060E089E00E949102CBCF6FEF73E088E081
:102EC0000E9491026FEF73E089E00E9491021093DB
:102ED0001E0200931D02109215021092160210920B
:102EE0001702109218021ACB109233031092340377
:102EF000109235031092360380914D0390914E034A
:102F0000A0914F03B091500380933B0390933C03F7
:102F1000A0933D03B0933E038091430390914403FB
:102F2000A0914503B091460380933F0390934003E3
:102F3000A0934103B093420310921E0210921D020F
:102F400084E690E0A0E0B0E0A4CFC12C84E2D82ECB
:102F500084E7E82E89ECF82EADCC84319105A105EB
:102F6000B1050CF0CECC24E130E040E050E02093FD
:102F70003104309332044093330450933404C9CC69
:102F8000B70188E00E94910270E060E0D3CC0E941B
:102F9000D6030091530310915403209155033091AF
:102FA0005603C00ED11EE21EF31E6C157D058E0564
:102FB0009F0508F440CE8DE00E94FE0161E0892B60
:102FC00009F060E08DE00E9427020E94D603609322
:102FD00053037093540380935503909356032BCE61
:102FE00032E4E316F10409F4B5C946C90E94381861
:102FF00008F481E00895E89409C097FB3EF49095A9
:103000008095709561957F4F8F4F9F4F9923A9F0C1
:10301000F92F96E9BB279395F69587957795679550
:10302000B795F111F8CFFAF4BB0F11F460FF1BC094
:103030006F5F7F4F8F4F9F4F16C0882311F096E927
:1030400011C0772321F09EE8872F762F05C06623D5
:1030500071F096E8862F70E060E02AF09A95660F8E
:10306000771F881FDAF7880F9695879597F9089547
:10307000990F0008550FAA0BE0E8FEEF1616170689
:10308000E807F907C0F012161306E407F50798F0F1
:10309000621B730B840B950B39F40A2661F0232B0A
:1030A000242B252B21F408950A2609F4A140A69586
:1030B0008FEF811D811D08950E946F180C94E018F8
:1030C0000E94D21838F00E94D91820F0952311F0F0
:1030D0000C94C9180C94CF1811240C9414190E9444
:1030E000F11870F3959FC1F3950F50E0551F629F43
:1030F000F001729FBB27F00DB11D639FAA27F00D51
:10310000B11DAA1F649F6627B00DA11D661F829F77
:103110002227B00DA11D621F739FB00DA11D621F5C
:10312000839FA00D611D221F749F3327A00D611D79
:10313000231F849F600D211D822F762F6A2F11245B
:103140009F5750409AF0F1F088234AF0EE0FFF1F8E
:10315000BB1F661F771F881F91505040A9F79E3FE5
:10316000510580F00C94C9180C9414195F3FE4F3D6
:10317000983ED4F3869577956795B795F795E7953B
:103180009F5FC1F7FE2B880F911D9695879597F944
:10319000089597F99F6780E870E060E008959FEFD9
:1031A00080EC089500240A941616170618060906DE
:1031B000089500240A9412161306140605060895AD
:1031C000092E0394000C11F4882352F0BB0F40F435
:1031D000BF2B11F460FF04C06F5F7F4F8F4F9F4F75
:1031E000089557FD9058440F551F59F05F3F71F0F7
:1031F0004795880F97FB991F61F09F3F79F087955E
:103200000895121613061406551FF2CF4695F1DFE6
:1032100008C0161617061806991FF1CF8695710576
:10322000610508940895E894BB2766277727CB01AA
:1032300097F90895F999FECF92BD81BDF89A992723
:1032400080B50895262FF999FECF1FBA92BD81BD92
:1032500020BD0FB6F894FA9AF99A0FBE0196089518
:103260000E943B19A59F900DB49F900DA49F800DC7
:10327000911D11240895A29FB001B39FC001A39F87
:10328000700D811D1124911DB29F700D811D11249F
:10329000911D089597FB072E16F4009407D077FD33
:1032A00009D00E94A71907FC05D03EF4909581959E
:1032B0009F4F0895709561957F4F0895A1E21A2E52
:1032C000AA1BBB1BFD010DC0AA1FBB1FEE1FFF1FCA
:1032D000A217B307E407F50720F0A21BB30BE40B1A
:1032E000F50B661F771F881F991F1A9469F7609561
:1032F0007095809590959B01AC01BD01CF0108951B
:10330000052E97FB1EF400940E94971957FD07D0D5
:103310000E945E1907FC03D04EF40C949719509547
:103320004095309521953F4F4F4F5F4F08959095B1
:103330008095709561957F4F8F4F9F4F0895EE0F49
:10334000FF1F881F8BBF0790F691E02D1994AA1BD1
:10335000BB1B51E107C0AA1FBB1FA617B70710F080
:10336000A61BB70B881F991F5A95A9F780959095B2
:10337000BC01CD0108955058BB27AA270E94D3193C
:103380000C94E0180E94D21838F00E94D91820F04E
:1033900039F49F3F19F426F40C94CF180EF4E095FD
:1033A000E7FB0C94C918E92F0E94F11858F3BA17DB
:1033B000620773078407950720F079F4A6F50C944B
:1033C00013190EF4E0950B2EBA2FA02D0B01B901A5
:1033D00090010C01CA01A0011124FF27591B99F08B
:1033E000593F50F4503E68F11A16F040A22F232F97
:1033F000342F4427585FF3CF469537952795A795E7
:10340000F0405395C9F77EF41F16BA0B620B730B8D
:10341000840BBAF09150A1F0FF0FBB1F661F771FFE
:10342000881FC2F70EC0BA0F621F731F841F48F4B3
:10343000879577956795B795F7959E3F08F0B0CF3C
:103440009395880F08F09927EE0F97958795089523
:103450000E943C1A0C94E0180E94D91858F00E945F
:10346000D21840F029F45F3F29F00C94C91851118B
:103470000C9414190C94CF180E94F11868F3992336
:10348000B1F3552391F3951B550BBB27AA27621760
:103490007307840738F09F5F5F4F220F331F441F6D
:1034A000AA1FA9F335D00E2E3AF0E0E832D09150A1
:1034B0005040E695001CCAF72BD0FE2F29D0660F8E
:1034C000771F881FBB1F261737074807AB07B0E8D1
:1034D00009F0BB0B802DBF01FF2793585F4F3AF0D7
:1034E0009E3F510578F00C94C9180C9414195F3F55
:1034F000E4F3983ED4F3869577956795B795F7955D
:103500009F5FC9F7880F911D9695879597F9089544
:10351000E1E0660F771F881FBB1F621773078407E0
:10352000BA0720F0621B730B840BBA0BEE1F88F7EF
:10353000E09508950E94A11A6894B1110C94141991
:1035400008950E94F91888F09F5798F0B92F99278D
:10355000B751B0F0E1F0660F771F881F991F1AF07E
:10356000BA95C9F714C0B13091F00E941319B1E0B7
:1035700008950C941319672F782F8827B85F39F0B6
:10358000B93FCCF3869577956795B395D9F73EF417
:1035900090958095709561957F4F8F4F9F4F0895BF
:1035A0000E94381808F48FEF08950E943818880B8D
:1035B000990B08950F931F93CF93DF93823091055A
:1035C00010F482E090E0E0915A04F0915B0430E066
:1035D00020E0B0E0A0E0309799F42115310509F41E
:1035E0004AC0281B390B24303105D8F58A819B81CC
:1035F0006115710589F1FB0193838283FE0111C07E
:10360000408151810281138148175907E0F0481722
:10361000590799F4109761F012960C93129713962C
:103620001C933296CF01DF91CF911F910F91089596
:1036300000935A0410935B04F4CF2115310551F027
:103640004217530738F0A901DB019A01BD01DF01E0
:10365000F801C1CFEF01F9CF90935B0480935A0436
:10366000CDCFFE01E20FF31F8193919322503109D8
:1036700039832883D7CF2091580430915904232BC4
:1036800041F420912702309128023093590420936D
:10369000580420912502309126022115310541F46C
:1036A0002DB73EB74091290250912A02241B350BB9
:1036B000E0915804F0915904E217F307A0F42E1B8F
:1036C0003F0B2817390778F0AC014E5F5F4F241786
:1036D000350748F04E0F5F1F50935904409358042C
:1036E000819391939FCFF0E0E0E09CCFCF93DF9365
:1036F0000097E9F0FC01329713821282A0915A04DC
:10370000B0915B04ED0130E020E01097A1F420813E
:103710003181820F931F209158043091590428174A
:10372000390709F061C0F0935904E0935804DF9120
:10373000CF910895EA01CE17DF07E8F54A815B8152
:103740009E0141155105B1F7E901FB83EA834991D7
:103750005991C40FD51FEC17FD0761F48081918149
:103760000296840F951FE901998388838281938152
:103770009B838A83F0E0E0E012968D919C911397F1
:103780000097B9F52D913C911197CD010296820FCA
:10379000931F20915804309159042817390739F69E
:1037A000309751F510925B0410925A04B09359046B
:1037B000A0935804BCCFD383C28340815181840F2E
:1037C000951FC817D90761F44E5F5F4F88819981B3
:1037D000480F591F518340838A819B819383828341
:1037E0002115310509F0B0CFF0935B04E0935A0442
:1037F0009ECFFD01DC01C0CF13821282D7CF4F9242
:103800005F926F927F928F929F92AF92BF92CF9270
:10381000DF92EF92FF920F931F93CF93DF938C0170
:10382000009799F4CB01DF91CF911F910F91FF90F9
:10383000EF90DF90CF90BF90AF909F908F907F9050
:103840006F905F904F900C94DA1AFC01E60FF71F0F
:103850009C0122503109E217F30708F4AEC0D901E8
:10386000CD91DC911197C617D70720F1C530D1054E
:1038700078F0CE0104978617970750F0C61BD70B38
:103880002297C193D1936D937C93CF010E94761BB5
:10389000C801DF91CF911F910F91FF90EF90DF90C2
:1038A000CF90BF90AF909F908F907F906F905F90E0
:1038B0004F9008955B01AC1ABD0A4C018C0E9D1E01
:1038C000A0915A04B0915B04512C412CF12CE12CB5
:1038D000109731F5809158049091590488159905F5
:1038E00009F05CC04616570608F058C080912502C2
:1038F00090912602009741F48DB79EB7409129021E
:1039000050912A02841B950BE817F90708F055C05F
:10391000F0935904E0935804F90171836083B8CFA0
:103920008D919C91119712966C90129713967C90A2
:103930001397A815B90559F56C0142E0C40ED11CC6
:10394000CA14DB0420F1AC014A195B09DA011296B2
:10395000159780F06282738251834083D9016D9301
:103960007C93E114F10471F0D7011396FC93EE936C
:1039700012978ECF22968C0F9D1FF9019183808321
:10398000F301EFCFF0935B04E0935A0481CF481624
:10399000590608F42C017D01D3019ACFCB010E9476
:1039A000DA1A7C01009749F0AE01B8010E94E01CD0
:1039B000C8010E94761B87016BCF10E000E068CF42
:1039C000FB01DC0102C001900D9241505040D8F73C
:1039D0000895FB01DC018D91019080190110D9F34C
:1039E000990B0895FB01DC0101900D920020E1F795
:0639F0000895F894FFCFDA
:1039F6008204820482048204820482048204820491
:103A060009560000FFE803000064000000010007FB
:103A1600000000803F00005C0480000000000018E9
:103A2600068304B0046506E005BF04050500000032
:103A360000B606C50900000000B606C3096E616E31
:103A460000696E66006F76660044495245435449E4
:103A56004F4E09504F534954494F4E094C4F41441C
:103A6600094355525F5350454544095345545F53E6
:103A7600504545440953544154450942545F5550F5
:103A86000942545F444F574E0942545F54415245D0
:103A96000942545F41555809494E5F564F4C54539D
:103AA60009564D5F564F4C5453094C4F4F505F5477
:103AB6000A0043414C4942524154494F4E20524517
:103AC600534554205749544820425554544F4E5359
:103AD60020434F4D424F000D0A006567696E006135
:103AE600726500203D3D3D3D3D3D3D3D3D205441FF
:103AF6005245203D3D3D3D3D3D3D3D3D3D0009009E
:00000001FF
