:100000000C9461010C946A0C0C943F0C0C94140C2D
:100010000C94E90B0C94BE0B0C94930B0C94680B92
:100020000C943D0B0C9492010C9492010C9492014F
:100030000C9492010C9492010C9492010C949201F4
:100040000C9492010C9492010C9492010C949201E4
:100050000C9492010C9492010C9492010C94F30A6A
:100060000C9492010C94BF0C0C94950C0C9492017E
:100070000C9492010C9492010C9492010C949201B4
:100080000C9492010C9492010C9492010C949201A4
:100090000C9492010C9492010C9492010C94920194
:1000A0000C9492010C9492010C9492010C94920184
:1000B0000C9492010C9492010C9492010C94920174
:1000C0000C9492010C9492010C9492010C94920164
:1000D0000C9492010C9492010C9492010C94920154
:1000E0000C9492010C9404030C94BB010C94FA013F
:1000F0000C94E2030C9482040C9483040C94DE01AF
:100100000C94D1020C94E8010C94F6010C94DA01E1
:100110000C94F0010C94C9020C9463030C94B60681
:100120000C94FC020C9418060C94C3090C94D40192
:100130000C94EC010C94BF040C9422030C94E00585
:100140000C9465060C94E2010C94B5010C944503E3
:100150000C94F50C0C94E0020C9431030C94B00454
:100160000C94EA020C940E030C94C3010C945903F2
:100170000C94F4020C94C7010C94C1090C9405056D
:100180000C94BF010C943B030C9418030C94D00105
:100190000C944F030C94CA010C94F5010C94D602F4
:1001A00000002100240027002A002D003000330029
:1001B00001010000040107010A01000022002500DE
:1001C00028002B002E003100340002010000050140
:1001D00008010B01000020002300260029002C004C
:1001E0002F0032000001000003010601090105058E
:1001F0000505070508080808020202020A0A08089D
:1002000004040404010101010101010103030303CA
:1002100003030303040707070C0C0C0C0C0C0C0C59
:100220000202020206060606060606060B0B0B0B6A
:100230000B0B0B0B0102102020080810204010208F
:10024000408002010201080402010102040810209A
:100250004080804020100804020180040201804098
:100260002010080402010804020101020408102001
:100270004080010204081020408000000A0B02099F
:100280000C0D0E0807030401000000000000000030
:10029000000000000000000000000000000000005E
:1002A000000000000000121110000000000000001B
:1002B000000000000000000000000000000000003E
:1002C000F50C11241FBECFEFD1E2DEBFCDBF00E0A1
:1002D0000CBF24E0AAE2B3E001C01D92A636B2072B
:1002E000E1F713E0A0E0B2E0E0E8F7E300E00BBFE5
:1002F00002C007900D92AA32B107D9F711E0C1E60A
:10030000D1E000E006C021970109802FFE010E9484
:100310006418C036D10780E00807A9F70E949B0D3A
:100320000C94BE1B0C9400008CBD9DBD08958150A3
:10033000823108F05AC0E82FF0E08827ED55FE4FD3
:100340008F4F0C946418C301C701B501BB01BF01F5
:10035000F501CA01D001D401DA01DE01E201E801B0
:10036000EC01F501F001F601FA01809180008F7730
:10037000809380000895809180008F7DF9CF8091D7
:100380008000877FF5CF84B58F7784BD089584B5CD
:100390008F7DFBCF8091B0008F778093B000089560
:1003A0008091B0008F7DF9CF809190008F778093FE
:1003B00090000895809190008F7DF9CF80919000FA
:1003C000877FF5CF8091A0008F778093A00008955C
:1003D0008091A0008F7DF9CF8091A000877FF5CF1D
:1003E000809120018F7780932001089580912001D2
:1003F0008F7DF9CF80912001877FF5CFCF93DF9359
:10040000282F30E0F901E658FD4F8491F901EC5CAA
:10041000FD4FD491F901E251FE4FC491CC23A1F0DC
:1004200081110E949701EC2FF0E0EE0FFF1FEC52BC
:10043000FE4FA591B491EC91ED2381E090E009F499
:1004400080E0DF91CF91089580E090E0FACF1F9394
:10045000CF93DF93282F30E0F901E658FD4F8491C8
:10046000F901EC5CFD4FD491F901E251FE4FC491CA
:10047000CC23A9F0162F81110E949701EC2FF0E0F8
:10048000EE0FFF1FE654FE4FA591B4918FB7F8947D
:10049000EC91111108C0D095DE23DC938FBFDF9162
:1004A000CF911F910895DE2BF8CFCF93DF9390E08B
:1004B000FC01EC5CFD4F249182519E4FFC01849124
:1004C0008823C9F090E0880F991FFC01E056FE4F89
:1004D000A591B491FC01E654FE4FC591D4916111F0
:1004E0000DC09FB7F8948C91209582238C938881BE
:1004F000282328839FBFDF91CF910895623051F464
:100500009FB7F8943C91822F809583238C93E88148
:100510002E2BEFCF8FB7F894EC912E2B2C938FBF0F
:10052000EACF1F93CF93DF93182FEB0161E00E9476
:100530005502209739F460E0812FDF91CF911F9110
:100540000C942702CF3FD10511F461E0F5CFE12FE4
:10055000F0E0E658FD4FE491E150E23108F0B3C01D
:10056000F0E08827E954FD4F8F4F0C946418C902BE
:10057000D102D602E002EA026303F402FC020403A1
:100580000E031803220331033B03630345034F03A8
:10059000590384B5806884BDC7BDDF91CF911F9199
:1005A000089584B5806284BDC8BDF7CF8091800076
:1005B000806880938000D0938900C0938800EDCF3D
:1005C00080918000806280938000D0938B00C093E4
:1005D0008A00E3CF80918000886080938000D09370
:1005E0008D00C0938C00D9CF8091B000806880933B
:1005F000B000C093B300D1CF8091B00080628093EF
:10060000B000C093B400C9CF8091900080688093FF
:100610009000D0939900C0939800BFCF8091900034
:10062000806280939000D0939B00C0939A00B5CFD6
:1006300080919000886080939000D0939D00C0933B
:100640009C00ABCF8091A00080688093A000809137
:10065000A0008F7B8093A000D093A900C093A80036
:100660009CCF8091A00080628093A000D093AB00CB
:10067000C093AA0092CF8091A00088608093A000D0
:10068000D093AD00C093AC0088CF809120018068EA
:1006900080932001D0932901C09328017ECF8091BF
:1006A0002001806280932001D0932B01C0932A0106
:1006B00074CF80912001886080932001D0932D0118
:1006C000C0932C016ACFC038D1050CF03ECF33CF98
:1006D00090917B00977F90937B00865380648093FA
:1006E0007C0080917A00806480937A0080917A0007
:1006F00086FDFCCF809178009091790008953FB7F6
:10070000F89480919A0390919B03A0919C03B091DF
:100710009D0326B5A89B05C02F3F19F00196A11D8A
:10072000B11D3FBFBA2FA92F982F8827BC01CD013B
:10073000620F711D811D911D42E0660F771F881F9A
:10074000991F4A95D1F708958F929F92AF92BF92C9
:10075000CF92DF92EF92FF924B015C010E947F03E8
:100760006B017C010E947F036C197D098E099F0932
:10077000683E734081059105A8F321E0821A910833
:10078000A108B10888EEC80E83E0D81EE11CF11C58
:1007900081149104A104B10429F7FF90EF90DF9038
:1007A000CF90BF90AF909F908F9008952FB7F894FF
:1007B00060919603709197038091980390919903AB
:1007C0002FBF0895CF92DF92EF92FF920F931F9366
:1007D000CF93DF9384E00E94FE01EC010E94D603D8
:1007E00000912F0310913003209131033091320397
:1007F0006B017C01C01AD10AE20AF30A9701860153
:10080000053111052105310550F010922B0310928E
:100810002C0310922D0310922E0310922A03609342
:100820002F03709330038093310390933203209110
:100830002A03293160F52F5F20932A03CD2B89F0FD
:1008400080912B0390912C03A0912D03B0912E0346
:10085000B06880932B0390932C03A0932D03B09347
:100860002E0380912B0390912C03A0912D03B09126
:100870002E032731A9F0B695A79597958795809374
:100880002B0390932C03A0932D03B0932E03DF91A1
:10089000CF911F910F91FF90EF90DF90CF9008952F
:1008A00029E0B695A795979587952A95D1F78093D6
:1008B0002B0390932C03A0932D03B0932E03AC0134
:1008C000BD016F707727A4FF07C0709560955095A4
:1008D00041955F4F6F4F7F4F40933C0350933D03D3
:1008E00060933E0370933F030E94D60360934903D5
:1008F00070934A0380934B0390934C0381E0809361
:100900004003C5CF0895AF92BF92CF92DF92EF928E
:10091000FF920F931F93CF93DF936C017B018B01A9
:10092000040F151FEB015E01AE18BF08C017D107F9
:1009300059F06991D601ED91FC910190F081E02D83
:10094000C6011995892B79F7C501DF91CF911F91C8
:100950000F91FF90EF90DF90CF90BF90AF900895F0
:10096000FC01538D448D252F30E0842F90E0821BB5
:10097000930B541710F0CF96089501970895FC013A
:10098000918D828D981761F0A28DAE0FBF2FB11D92
:100990005D968C91928D9F5F9F73928F90E00895EA
:1009A0008FEF9FEF08950F931F930E94D6036093DC
:1009B000A6037093A7038093A8039093A9038EE9DD
:1009C00093E00E94BF0497FF1DC00E94D6030091D0
:1009D000A6031091A7032091A8033091A903601BDF
:1009E000710B820B930B0091A2031091A303209132
:1009F000A4033091A5036017710782079307F8F2EB
:100A00008FEF9FEF1F910F910895FC01918D828DC3
:100A1000981731F0828DE80FF11D858D90E00895D3
:100A20008FEF9FEF08950F931F930E94D60360935B
:100A3000A6037093A7038093A8039093A9038EE95C
:100A400093E00E94050597FF1DC00E94D603009108
:100A5000A6031091A7032091A8033091A903601B5E
:100A6000710B820B930B0091A2031091A3032091B1
:100A7000A4033091A5036017710782079307F8F26A
:100A80008FEF9FEF1F910F9108958F929F92AF92DA
:100A9000BF92CF92DF92EF92FF92CF93DF930E94AB
:100AA0001305FC0197FD88C08D32910509F04CC0FB
:100AB000812C912C80E8A82E8FE3B82EC12CD12C4C
:100AC0007601C0E0D0E0E130F10559F1ED32F105F9
:100AD00009F447C0EE32F10509F445C0CF01C097D3
:100AE0000A97F8F4AAE0B0E0A70196010E94F51772
:100AF0006F01FF0FEE08FF08C60ED71EE81EF91E95
:100B000080E3C81AD108E108F108CC2351F02DEC9C
:100B10003CEC4CEC5DE3C501B4010E9421174B0194
:100B20005C018EE993E00E94BF040E941305FC0162
:100B3000C0970A9740F2EE32F105B9F4CC2319F2CE
:100B4000CD2FD11118C025C0C0970A9708F4B0CF97
:100B5000EE32F10509F4ACCF8EE993E00E94BF04B8
:100B60009ECFD1E0DECFC1E0DCCFE130F10509F46A
:100B7000AACFDD2341F0F094E094D094C094C11C3E
:100B8000D11CE11CF11CC701B6010E94C216CC2386
:100B900041F0C701B6010E94C216A50194010E944E
:100BA0002117DF91CF91FF90EF90DF90CF90BF9012
:100BB000AF909F908F90089560E070E0CB01F1CFEF
:100BC000FC01918D228D892F90E0805C9F4F821BCC
:100BD00091098F73992708958EE993E00E94E005AB
:100BE00021E0892B09F420E0822F0895FC01A48DD7
:100BF000A80FB92FB11DA35ABF4F2C91848D90E03F
:100C000001968F739927848FA689B7892C93A08921
:100C1000B1898C91837080648C93938D848D9813AB
:100C200006C00288F389E02D80818F7D808308953E
:100C3000EF92FF920F931F93CF93DF93EC0181E02C
:100C4000888F9B8D8C8D98131AC0E889F9898081D3
:100C500085FF15C09FB7F894EE89FF896083E88906
:100C6000F98980818370806480839FBF81E090E0F8
:100C7000DF91CF911F910F91FF90EF900895F62E85
:100C80000B8D10E00F5F1F4F0F731127E02E8C8D1F
:100C90008E110CC00FB607FCFACFE889F989808164
:100CA00085FFF5CFCE010E94F605F1CFEB8DEC0F5D
:100CB000FD2FF11DE35AFF4FF0829FB7F8940B8F81
:100CC000EA89FB8980818062CFCFCF93DF93EC01EB
:100CD000888D8823B9F0AA89BB89E889F9898C9124
:100CE00085FD03C0808186FD0DC00FB607FCF7CFE0
:100CF0008C9185FFF2CF808185FFEDCFCE010E94E0
:100D0000F605E9CFDF91CF91089580E090E0892B3F
:100D100029F00E94EC0581110E94000080E090E023
:100D2000892B49F080E090E0892B29F00E94000097
:100D300081110E94000080E090E0892B49F080E062
:100D400090E0892B29F00E94000081110E94000090
:100D500080E090E0892B49F080E090E0892B29F039
:100D60000E94000081110C940000089508950895D8
:100D70008EBD00000DB407FEFDCF8EB50895EF9235
:100D8000FF920F931F93CF93DF938B01811184E028
:100D9000282F30E0C9010196E901C15CDB4F003129
:100DA00057E215075CF129E82983815C9B4FFC0120
:100DB00021832B832C8380E591E00E94940100E441
:100DC00014E0C1E060E080913F040E9427028C2F74
:100DD0000E94B806F80181918F010E94B80661E077
:100DE00080913F040E942702CF5FC93059F7DF91FD
:100DF000CF911F910F91FF90EF9008950931FCEF73
:100E00001F0734F42AE82983815C9B4F29E8CFCF60
:100E100017FF2CC08AE08983119501951109EAE03A
:100E2000F0E0C801BF010E940F18EC01CB01BF0127
:100E30000E940F18F82EE92EC80164E670E00E94A7
:100E40000F18CB01BF010E940F18D901A15CBB4F45
:100E500061E070E0E3E0F0E0E41BF1095FE06E17B1
:100E60007F07C4F012968C93129720C0C80168EED9
:100E700073E00E940F186115710519F48FE08983E2
:100E8000CECF6983CCCF8F2D9E2D6230710539F383
:100E9000CE01E5CF009731F711964C9111974F3065
:100EA00011F04A30F9F612965C9312976F5F7F4FFC
:100EB00011966430710539F7E20FF31FE15CFB4FC7
:100EC00081818068818377CF0F931F93CF93C82F41
:100ED00080E591E00E9494010FE314E060E0F801E6
:100EE00080810E9427028AE00E94B8068C2F0E940F
:100EF000B80661E0F80180810E9427028C2FCF9113
:100F00001F910F9108951F93CF93DF93182F80E5C2
:100F100091E00E949401CFE3D4E060E088810E94D8
:100F200027028FE00E94B806812F0E94B80661E078
:100F30008881DF91CF911F910C942702CF93DF938B
:100F4000EB010E94FE01892B71F4C130D10531F013
:100F500088F0C230D10571F0239779F482E090E0F7
:100F6000DF91CF910895209711F0229731F483E01B
:100F700090E0F6CF90E080E0F3CF81E090E0F0CF1A
:100F8000FF920F931F93CF93DF93F82E062FC7E0A6
:100F9000D0E010E061E0802F0E9427028F2D0E9498
:100FA000FE010C2E01C0880F0A94EAF7182B60E0AE
:100FB000802F0E942702219768F7812FDF91CF9120
:100FC0001F910F91FF900895EF92FF920F931F933F
:100FD000CF9380914B040E94FE01892BD1F7609141
:100FE0004A0480914B040E94C007082F60914A0474
:100FF00080914B040E94C007C82F60914A048091E1
:101000004B040E94C007182FF12CE12C80914C0456
:101010008E151F0479F070F061E080914A040E94FF
:10102000270260E080914A040E9427028FEFE81AAD
:10103000F80AECCF6C2F70E090E080E0982F872FBB
:10104000762F6627802B612B000F000B10E030E01D
:1010500020E0302F222711270027602B712B822BB5
:10106000932BCF911F910F91FF90EF900895CF9206
:10107000DF92EF92FF92CF93CAE0C12CD12C760180
:101080000E94E407C60ED71EE81EF91EC150C1F724
:10109000C701B6012AE030E040E050E00E94451868
:1010A000CA01B9010E94C2160E945F1960934D04E3
:1010B00070934E0480934F0490935004CF91FF900F
:1010C000EF90DF90CF900895FC0101900020E9F7A8
:1010D0003197AF01481B590BBC018EE993E00C948A
:1010E00083048F929F92AF92BF920F931F93CF93DF
:1010F000DF93CDB7DEB7A1970FB6F894DEBF0FBE72
:10110000CDBF19A2423008F44AE08E010F5D1F4F97
:10111000842E912CB12CA12CA50194010E9423189E
:10112000E62FB901CA01EA30F4F4E05DD801EE938C
:101130008D01232B242B252B79F790E080E010974D
:1011400019F0CD010E946408A1960FB6F894DEBF95
:101150000FBECDBFDF91CF911F910F91BF90AF9088
:101160009F908F900895E95CE1CFCF92DF92EF924C
:10117000FF92CF93DF936C01990FEE08FF08F7FE03
:1011800019C06DE28EE993E00E941806EC01662713
:101190007727CB016C197D098E099F094AE00E94CF
:1011A00071088C0F9D1FDF91CF91FF90EF90DF9022
:1011B000CF9008954AE0C701B601DF91CF91FF902B
:1011C000EF90DF90CF900C9471084F925F926F92E6
:1011D0007F928F929F92AF92BF92CF92DF92EF92C7
:1011E000FF920F931F93CF936B017C01742EAC0180
:1011F0009B010E949A19882399F08DE492E0CF9187
:101200001F910F91FF90EF90DF90CF90BF90AF9024
:101210009F908F907F906F905F904F900C94640898
:1012200046015701E894B7F82FEF3FEF4FE75FE72C
:10123000C501B4010E949A1981110DC02FEF3FEF33
:101240004FE75FE7C501B4010E94BB1618161CF4F6
:1012500081E592E0D4CF2FEF3FEF4FE75FE4C70186
:10126000B6010E94951918161CF485E592E0C7CFC7
:101270002FEF3FEF4FE75FECC701B6010E94BB16AF
:1012800087FDF3CF20E030E0A901C701B6010E943D
:10129000BB1610E000E087FF0AC06DE28EE993E024
:1012A0000E9418068C01F7FAF094F7F8F094C0E069
:1012B00060E070E080E09FE37C1641F020E030E0E9
:1012C00040E251E40E94ED18CF5FF6CFA7019601EE
:1012D0000E9481182B013C010E9466194B015C01A0
:1012E0004AE00E9471087C01E00EF11ECC23C1F19E
:1012F000C501B4010E94C0169B01AC01C301B2013B
:101300000E9480184B015C016EE28EE993E00E941E
:101310001806E80EF91EC15018F120E030E040E256
:1013200051E4C501B4010E9421172B013C010E9428
:1013300066194B01B12CA12C4AE0C501B4010E94F1
:101340007108E80EF91EC501B4010E94C0169B0188
:10135000AC01C301B2010E9480184B015C01DBCFDC
:10136000C701CF911F910F91FF90EF90DF90CF9029
:10137000BF90AF909F908F907F906F905F904F90B5
:1013800008950C943B1A0C943B1ACF92DF92EF9283
:10139000FF920F931F93CF93DF93EB017B0124E028
:1013A000E20EF11C8B016C01C61AD70AC601800F30
:1013B000911F0E94DF17F80181938F01EE15FF0541
:1013C000A9F7CE01DF91CF911F910F91FF90EF9080
:1013D000DF90CF9008950F931F93CF93DF93EC018D
:1013E00088819981009759F02A813B812617370718
:1013F00030F081E0DF91CF911F910F9108958B0123
:101400006F5F7F4F0E94C41A009759F099838883B9
:101410001B830A832C813D81232B59F7FC01108209
:10142000E8CF80E0E7CFEF92FF920F931F93CF9327
:10143000DF931F921F92CDB7DEB78C01FC011182A2
:101440001082138212821582148270E060E00E9482
:10145000EB09F80120813181811132C0211531055C
:1014600019F0C9010E943B1AF801118210821582FD
:101470001482138212820E94D30497FD29C08A30FD
:10148000910531F189831A82F801E480F580FFEF3C
:10149000EF1AFF0AB701C8010E94EB09882359F32C
:1014A000F8012081318184819581BE016F5F7F4F7A
:1014B000820F931F0E94B71BF801F582E482DBCFF5
:1014C0001582148269E273E0C9010E94B71BD3CF71
:1014D000C8010F900F90DF91CF911F910F91FF9056
:1014E000EF900895FF920F931F93CF93DF93EC013A
:1014F000F62E08811981C8010E94DF17F81621F025
:101500006F2DC8010E94E717CE01DF91CF911F9187
:101510000F91FF900895AF92BF92CF92DF92EF921A
:10152000FF920F931F93CF93DF931F921F92CDB71C
:10153000DEB78B016B0124E0C20ED11C7B015C0184
:10154000A61AB70AC5018E0D9F1D9A838983F701DC
:1015500061917F01CE0101960E94720AEC14FD0494
:1015600089F7C8010F900F90DF91CF911F910F91D4
:10157000FF90EF90DF90CF90BF90AF900895AF9223
:10158000BF92CF92DF92EF92FF920F931F93CF9370
:10159000DF931F921F92CDB7DEB78B016B0124E062
:1015A000C20ED11C7B015C01A61AB70AC5018E0DC3
:1015B0009F1D9A838983F70161917F01CE01019676
:1015C0000E94720AEC14FD0489F7C8010F900F9075
:1015D000DF91CF911F910F91FF90EF90DF90CF900F
:1015E000BF90AF9008951F920F920FB60F921124E3
:1015F0002F933F938F939F93AF93BF9380919603C5
:1016000090919703A0919803B0919903309195031D
:1016100023E0230F2D3758F50196A11DB11D20930E
:1016200095038093960390939703A0939803B093A8
:10163000990380919A0390919B03A0919C03B09190
:101640009D030196A11DB11D80939A0390939B0366
:10165000A0939C03B0939D03BF91AF919F918F91F5
:101660003F912F910F900FBE0F901F90189526E875
:10167000230F0296A11DB11DD2CF1F920F920FB65C
:101680000F9211240BB60F922F933F934F935F93BA
:101690006F937F938F939F93AF93BF93EF93FF933A
:1016A000E0910E02F0910F021995FF91EF91BF9119
:1016B000AF919F918F917F916F915F914F913F91EA
:1016C0002F910F900BBE0F900FBE0F901F9018958B
:1016D0001F920F920FB60F9211240BB60F922F93F9
:1016E0003F934F935F936F937F938F939F93AF93AA
:1016F000BF93EF93FF93E0910C02F0910D021995C7
:10170000FF91EF91BF91AF919F918F917F916F91D9
:101710005F914F913F912F910F900BBE0F900FBE95
:101720000F901F9018951F920F920FB60F921124D1
:101730000BB60F922F933F934F935F936F937F93CB
:101740008F939F93AF93BF93EF93FF93E091020228
:10175000F09103021995FF91EF91BF91AF919F9185
:101760008F917F916F915F914F913F912F910F904A
:101770000BBE0F900FBE0F901F9018951F920F92E7
:101780000FB60F9211240BB60F922F933F934F93E6
:101790005F936F937F938F939F93AF93BF93EF93D9
:1017A000FF93E0910002F09101021995FF91EF91F2
:1017B000BF91AF919F918F917F916F915F914F9169
:1017C0003F912F910F900BBE0F900FBE0F901F9067
:1017D00018951F920F920FB60F9211240BB60F920D
:1017E0002F933F934F935F936F937F938F939F9329
:1017F000AF93BF93EF93FF93E0910A02F0910B0236
:101800001995FF91EF91BF91AF919F918F917F912A
:101810006F915F914F913F912F910F900BBE0F9061
:101820000FBE0F901F9018951F920F920FB60F9238
:1018300011240BB60F922F933F934F935F936F93A7
:101840007F938F939F93AF93BF93EF93FF93E09119
:101850000802F09109021995FF91EF91BF91AF91A4
:101860009F918F917F916F915F914F913F912F91B8
:101870000F900BBE0F900FBE0F901F9018951F92E8
:101880000F920FB60F9211240BB60F922F933F9326
:101890004F935F936F937F938F939F93AF93BF9378
:1018A000EF93FF93E0910602F09107021995FF91E3
:1018B000EF91BF91AF919F918F917F916F915F91C8
:1018C0004F913F912F910F900BBE0F900FBE0F9035
:1018D0001F9018951F920F920FB60F9211240BB6FE
:1018E0000F922F933F934F935F936F937F938F93B9
:1018F0009F93AF93BF93EF93FF93E0910402F09116
:1019000005021995FF91EF91BF91AF919F918F9132
:101910007F916F915F914F913F912F910F900BBEEF
:101920000F900FBE0F901F9018951F920F920FB639
:101930000F9211240BB60F922F933F934F935F9307
:101940006F937F938F939F93AF93BF93EF93FF9387
:101950008EE993E00E94F605FF91EF91BF91AF9160
:101960009F918F917F916F915F914F913F912F91B7
:101970000F900BBE0F900FBE0F901F9018951F92E7
:101980000F920FB60F9211240BB60F922F938F93D5
:101990009F93EF93FF93E091AE03F091AF038081AB
:1019A000E091B403F091B50382FD1DC09081809158
:1019B000B7038F5F8F732091B803821741F0E091D6
:1019C000B703F0E0E256FC4F958F8093B703FF9189
:1019D000EF919F918F912F910F900BBE0F900FBEA3
:1019E0000F901F9018958081F2CFCF92DF92EF92E7
:1019F000FF92CF93DF93EEE9F3E01382128288EE39
:101A000093E0A0E0B0E084839583A683B7838FE260
:101A100092E09183808385EC90E09587848784ECC5
:101A200090E09787868780EC90E0918B808B81ECAB
:101A300090E0938B828B82EC90E0958B848B86EC8C
:101A400090E0978B868B118E128E138E148EC5E5C7
:101A5000D4E089E492E0998388831D821E821F82EC
:101A60001886C12CD12C80E8E82E8FE3F82EC98689
:101A7000DA86EB86FC8683E08A8384E08B8360E0F1
:101A800083E00E94550260E08B810E945502C8E409
:101A9000D4E081E492E0998388831D821E821F82B4
:101AA0001886C986DA86EB86FC8685E08A8386E01E
:101AB0008B8361E085E00E94550260E08B810E948B
:101AC000550281E08C8360E08A810E9427020E9497
:101AD000E407E0E4F4E088E0DF011D928A95E9F78D
:101AE0008AE180933F0461E00E94270220E030E019
:101AF00040E450E46091210270912202809123021F
:101B0000909124020E94ED1820E030EC4FE754E45D
:101B10000E9421170E945F1960933B0470933C045C
:101B200080933D0490933E04DF91CF91FF90EF901E
:101B3000DF90CF900895CF93DF93CDB7DEB76A974C
:101B40000FB6F894DEBF0FBECDBF789484B5826027
:101B500084BD84B5816084BD85B5826085BD85B551
:101B6000816085BD80916E00816080936E001092CF
:101B7000810080918100826080938100809181004A
:101B800081608093810080918000816080938000DB
:101B90008091B10084608093B1008091B000816039
:101BA0008093B00080919100826080939100809139
:101BB000910081608093910080919000816080937A
:101BC00090008091A10082608093A1008091A1008B
:101BD00081608093A1008091A00081608093A0002B
:101BE0008091210182608093210180912101816097
:101BF0008093210180912001816080932001809158
:101C00007A00846080937A0080917A008260809369
:101C10007A0080917A00816080937A0080917A00C6
:101C2000806880937A001092C100F8940E94D603D5
:101C30000E94D603709394036093930360E083E063
:101C40000E94550260E084E00E94550261E087E155
:101C50000E94550260E087E10E94270261E088E16E
:101C60000E94550260E088E10E94270261E085E061
:101C70000E94550260E086E00E94550261E089E121
:101C80000E94550261E087E00E94550261E088E011
:101C90000E94550261E089E00E94550260E08AE0FE
:101CA0000E94550260E08BE00E94550260E08CE0EB
:101CB0000E94550261E08EE00E94550261E086E1DB
:101CC0000E94550261E08AE10E94550261E083E3CF
:101CD0000E94550261E084E30E94550260E086E3C1
:101CE0000E94550260E087E30E94550260E088E3AD
:101CF0000E94550260E089E30E94550262E08EE393
:101D00000E94550262E08FE30E94550262E080E487
:101D10000E94550262E081E40E94550262E082E482
:101D20000E945502E091AE03F091AF0382E0808300
:101D3000E091AA03F091AB031082E091AC03F09123
:101D4000AD0387E080831092B603E091B203F09177
:101D5000B30386E08083E091B003F091B10380810A
:101D600080618083E091B003F091B103808188604D
:101D70008083E091B003F091B1038081806880831B
:101D8000E091B003F091B10380818F7D808389E57C
:101D900092E00E94640860E087E10E94270260E010
:101DA00088E10E94270282EE93E0909303028093E1
:101DB000020280916A008C6080936A00ED9A8DEC3B
:101DC0009CECA5ECB2EC80935E0490935F04A0932E
:101DD0006004B09361041092400380913C039091A1
:101DE0003D03A0913E03B0913F0380935A0490932A
:101DF0005B04A0935C04B0935D041F82188619866F
:101E00001A8681E40E94FE01892BD1F582E40E94AA
:101E1000FE01892BA9F58CED92E00E94640881E017
:101E200093E00E94640883EB96E7A1E8BAE7898310
:101E30009A83AB83BC83BE016F5F7F4F81E090E0EC
:101E40000E94BF0A60E172E085E090E00E948B0A88
:101E500089E090E09A83898360E0CE0101960E9438
:101E6000720A8AE090E09A83898360E0CE0101964D
:101E70000E94720A64E670E080E090E00E94A40391
:101E8000BE01695F7F4F81E090E00E94C509FC01BF
:101E900080819181A281B381833B9647A148BA4753
:101EA00009F0ABC168E373E085E090E00E94C509EA
:101EB00089E090E00E94DF17809334038AE090E08D
:101EC0000E94DF17809335038BE090E00E94DF17BC
:101ED000809336038CE090E00E94DF1780933703F5
:101EE00085E080934A0486E080934B0461E085E0BE
:101EF0000E94550260E080914B040E94550281E0EF
:101F000080934C0460E080914A040E9427020E9462
:101F1000E407609138037091390380913A039091FE
:101F20003B030E94C0166093510470935204809347
:101F30005304909354048091340390913503A091FD
:101F40003603B091370380934D0490934E04A093D1
:101F50004F04B09350040E94370860E08EE00E9466
:101F6000270261E086E10E94270261E070E080E0E4
:101F700090E00E94A40361E08EE00E94270281E0CD
:101F800090E090931E0280931D0287E090E0909372
:101F9000200280931F0278941FB7F8948091330336
:101FA000811127C0E3E2F2E08491E9E6F2E0949146
:101FB000E82FF0E0EE0FFF1FE056FE4FA591B49121
:101FC000EC91E92321F461E085E30E94270261E0BE
:101FD00085E30E9455028CB580618CBD8CB5806410
:101FE0008CBD61E084E30E94550261E083E30E94BE
:101FF0005502809133038F5F809333031FBF84E0CA
:102000000E94640780E591E00E94940160E0809165
:102010003F040E9427028CE00E94B80681E00E94E3
:10202000B80661E080913F040E94270280E591E0BC
:102030000E94940160E080913F040E94270289E0A1
:102040000E94B8068FEF0E94B80661E080913F04BD
:102050000E94270280E591E00E94940160E0809157
:102060003F040E9427028BE00E94B80687E00E948E
:10207000B80661E080913F040E94270281E00E943F
:10208000830768EE73E080E090E00E94A40380E0A4
:102090000E9483078AE00E94640740E070E060E0ED
:1020A00080E00E94BF0661E08DE00E9455028CED49
:1020B00095E0A0E0B0E08093150290931602A09303
:1020C0001702B09318020E94D603609369037093BD
:1020D0006A0380936B0390936C0322242394312C26
:1020E0000E94D60370939403609393032DEC3CEC11
:1020F00045EC52EC20935E0430935F0440936004FF
:1021000050936104609191037091920381E490E097
:102110000E949E07909392038093910360918F0396
:102120007091900380E490E00E949E07909390034A
:1021300080938F0360918D0370918E038EE390E006
:102140000E949E0790938E0380938D0360918B0372
:1021500070918C038FE390E00E949E0790938C0314
:1021600080938B036091890370918A0382E490E0ED
:102170000E949E0790938A038093890347E050E072
:102180005093200240931F028EE993E00E94E005E5
:10219000892B09F49EC18EE993E00E94BF047C0163
:1021A0008C010F7D0635110509F442C055E5E51691
:1021B000F10409F450C084E4E816F10409F0C3C046
:1021C00080911D0290911E028430910511F00197BB
:1021D00041F484E090E09093200280931F021092DB
:1021E00014020335110509F0DCC08FEF809314024F
:1021F0003092200220921F0295C00E94E4071092A4
:1022000034031092350310923603109237038091F5
:10221000100290911102A0911202B09113028093CA
:10222000380390933903A0933A03B0933B0358CEFD
:102230000E9445054B015C01AC019B010E949A196B
:102240008111B4CF8092210290922202A0922302A7
:10225000B0922402B0CF80911D0290911E028D7F1A
:10226000019741F483E090E09093200280931F0255
:10227000109214020334110509F0B3CF0E944505F2
:102280006B017C010E94E40780904D0490904E0405
:10229000A0904F04B0905004681979098A099B09ED
:1022A0000E94C216A70196010E94ED180E946619AD
:1022B000609338037093390380933A0390933B0300
:1022C0000E94C0166093510470935204809353048B
:1022D0009093540423EB36E741E85AE729833A8385
:1022E0004B835C83BE016F5F7F4F81E090E00E9473
:1022F000BF0A68E373E085E090E00E94BF0A809126
:102300004D0490914E04A0914F04B09150048983E4
:102310009A83AB83BC83BE016F5F7F4F89E090E0FF
:102320000E948B0A0135110509F4CBC00035110557
:1023300009F063C03092200220921F0210924E03D7
:1023400010924D03C6C092E6E916F10409F00DC5DE
:10235000CE0101960E94130A8D819E81E980FA8048
:10236000892B49F064E073E0C7010E94AE1BDD24B5
:10237000D394892B09F0D12CE114F10419F0C70191
:102380000E943B1ADD2009F475CF80911D029091C7
:102390001E02019709F06ECF1092200210921F02C8
:1023A00069CF0435110509F0BDCFCE0101960E9419
:1023B000130A8D819E81E980FA80892B49F069E0BA
:1023C00073E0C7010E94AE1BDD24D394892B09F072
:1023D000D12CE114F10419F0C7010E943B1ADD2051
:1023E00061F080911D0290911E02892B31F088E0EE
:1023F00090E09093200280931F020235110509F0AE
:1024000068C00E941305FC0197FD40C38D32910501
:1024100021F0C0970A9708F032C3C12CD12C760165
:1024200010E0E130F105D9F0ED32F10509F42CC3EB
:10243000CF01C0970A9798F4AAE0B0E0A7019601EF
:102440000E94F5176F01FF0FEE08FF08C60ED71E9A
:10245000E81EF91E30E3C31AD108E108F1088EE93D
:1024600093E00E94BF040E941305FC01C0970A97E5
:10247000C0F2E130F105A9F2112341F0F094E094AB
:10248000D094C094C11CD11CE11CF11CD701C60121
:102490000197A109B109883C9105A105B105C8F4CE
:1024A00068EE73E080E090E0A70196010E94451875
:1024B0002093190230931A0240931B0250931C027E
:1024C00008C03092200220921F0230924E032092C8
:1024D0004D0380911D0290911E028330910509F4F5
:1024E00000C308F0D7C2009709F45AC381309105A0
:1024F00009F418C300911F02109120020330110546
:1025000009F47BC308F062C30115110509F4B1C3D6
:102510000130110509F496C347E050E050932002C2
:1025200040931F0287E30E94680386E30E946803CA
:1025300088E30E946803BC01990F880B990B0E94E5
:10254000C21620E135E34DEF52E40E94ED186F878B
:10255000788B898B9A8B6093850370938603809325
:1025600087039093880389E30E946803BC01990F55
:10257000880B990B0E94C21620E135E34DEF52E41F
:102580000E94ED186093810370938203809383030C
:102590009093840380914003882309F44AC01092E9
:1025A000400360913C0370913D0380913E03909104
:1025B0003F0300915A0410915B0420915C04309118
:1025C0005D04601B710B820B930B0E94C21620915D
:1025D0005E0430915F0440916004509161040E9458
:1025E000ED18609363037093640380936503909385
:1025F00066030091490310914A0320914B033091E7
:102600004C0300935F0310936003209361033093A6
:10261000620360934103709342038093430390935A
:1026200044030093450310934603209347033093DC
:10263000480300911D0210911E020115110509F0B9
:1026400022C140905F0350906003609061037090DE
:10265000620380915B0390915C03A0915D03B09154
:102660005E0373016201C81AD90AEA0AFB0A59E734
:10267000C516D104E104F1040CF405C18090630394
:1026800090906403A0906503B09066032091570377
:10269000309158034091590350915A03C501B40138
:1026A0000E9480186B877C878D879E878092570356
:1026B00090925803A0925903B0925A0340925B0340
:1026C00050925C0360925D0370925E03C701B60195
:1026D0000E94C2164B015C0120E030E04AE754E45E
:1026E0006B857C858D859E850E942117A5019401AF
:1026F0000E94ED186B017C0120E030E0A9010E94EE
:102700009519181624F0F7FAF094F7F8F094A70149
:102710009601609121027091220280912302909192
:1027200024020E9480186B017C0120E030E040EA26
:1027300051E40E9421170E945F196B877C878D8767
:102740009E87A70196016091530370915403809175
:102750005503909156030E94801820E030E048EC29
:1027600052E40E942117A50194010E94ED180E94D5
:102770005F196B8B7C8B8D8B9E8B40904F035090A1
:10278000500360905103709052032DEC3CEC4CE4EC
:102790005DE3C301B2010E9421170E945F196F8B94
:1027A000788F898F9A8FC0925303D0925403E0920E
:1027B0005503F0925603A7019601C501B4010E948A
:1027C0002117A30192010E9481186B017C0120E076
:1027D00034E244E759EC0E94BB1687FD7BC220E03F
:1027E00034E244E759E4C701B6010E94951918166E
:1027F0003CF4C12C94E2D92E94E7E92E99E4F92E09
:10280000C0924F03D0925003E0925103F0925203D2
:102810008B859C85AD85BE852B893C894D895E89DC
:10282000820F931FA41FB51F2F89388D498D5A8D94
:10283000820F931FA41FB51F811534E09307A105D4
:10284000B1050CF44FC28FEF93E0A0E0B0E08093AD
:102850003B0490933C04A0933D04B0933E04E0906D
:102860003B04F0903C0480914D0390914E03892BE2
:1028700009F04BC270E060E088E00E949102B7016D
:1028800089E00E94910280914B040E94FE01892BF5
:1028900009F05AC0C0907D03D0907E03E0907F0382
:1028A000F0908003C0927903D0927A03E0927B0388
:1028B000F0927C038090750390907603A09077034C
:1028C000B090780380927D0390927E03A0927F0364
:1028D000B09280030E94E40740904D0450904E0453
:1028E00060904F0470905004641975098609970927
:1028F0000E94C21620915104309152044091530419
:10290000509154040E94ED189B01AC012093750373
:10291000309376034093770350937803C501B40155
:102920000E948118A70196010E94811820E030E0E2
:1029300040E450E40E94ED186093710370937203B9
:1029400080937303909374030E94D603AB01BC0180
:1029500080916D0390916E03A0916F03B09170030D
:10296000C0901902D0901A02E0901B02F0901C0255
:102970008C0D9D1DAE1DBF1D481759076A077B07AB
:1029800018F408301105C1F50E94D60360936D0359
:1029900070936E0380936F039093700342E06F8592
:1029A000788989899A890E94E50888E293E00E94E3
:1029B00064086091810370918203809183039091F8
:1029C000840342E00E94E50888E293E00E946408E4
:1029D0008AE00E94FE010E94B50888E293E00E940E
:1029E00064088CE00E94FE010E94B50882E093E03A
:1029F0000E9464080E94D603C0901502D09016026F
:102A0000E0901702F090180261E0F7FC07C0C114D3
:102A1000D104E104F10409F07FC160E08DE00E947F
:102A200027026091710370917203809173039091FA
:102A300074030E945F1940E080E00E94BF0620E01E
:102A400030E040E251E4609163037091640380914F
:102A50006503909166030E9421170E945F1941E06F
:102A600081E00E94BF068091670390916803019600
:102A700090936803809367030E94850631CB8EE9AB
:102A800093E00E94BF04BDCC11E0E9CCC12CD12C55
:102A90007601FCCC84309105E1F1089709F02ACD4C
:102AA0008DE093E00E94640881E093E00E94640856
:102AB0000E9437081092400380913C0390913D039F
:102AC000A0913E03B0913F0380935A0490935B041E
:102AD000A0935C04B0935D0489E592E00E946408D1
:102AE00013C0209114022A3F40F42F5F2093140258
:102AF0009093200280931F02FDCC80918D039091D2
:102B00008E03019709F0F6CC3092200220921F022A
:102B1000F1CC209114022A3F40F380918B039091D5
:102B20008C03EFCF2091890330918A032230310545
:102B300051F420914D0330914E03232B71F4909367
:102B40004E0380934D0380918D0390918E038D7F72
:102B5000892B41F483E090E0CBCF10924E0310928A
:102B60004D03F1CF80918B0390918C038D7F892B46
:102B700019F484E090E0BCCF80918F039091900392
:102B8000029719F488E090E0B3CF8091910390917F
:102B90009203029729F41092200210921F02AACCED
:102BA00080918D0390918E03029709F4ADCF8091AF
:102BB0008B0390918C03029709F4A6CF809189032F
:102BC00090918A03029709F095CC9ECF04301105AD
:102BD00071F10830110509F09FCC10931E0200938B
:102BE0001D022FEF3FEFA90120931502309316022B
:102BF00040931702509318028FCC70E060E088E099
:102C00000E94910264EF71E089E00E9491021093AA
:102C10001E0200931D028FEF9FEFDC0180931502CF
:102C200090931602A0931702B093180275CC6FEF21
:102C300073E088E00E94910270E060E089E00E9409
:102C40009102CBCF6FEF73E088E00E9491026FEFAB
:102C500073E089E00E94910210931E0200931D020E
:102C6000109215021092160210921702109218027A
:102C700053CC10924F0310925003109251031092B4
:102C800052038091630390916403A0916503B09116
:102C900066038093570390935803A0935903B0930E
:102CA0005A0380915F0390916003A0916103B091FA
:102CB000620380935B0390935C03A0935D03B093E6
:102CC0005E0310921E0210921D0284E690E0A0E0C6
:102CD000B0E0A4CFC12C84E2D82E84E7E82E89ECA2
:102CE000F82E8ECD84319105A105B1050CF0AFCD44
:102CF00024E130E040E050E020933B0430933C047A
:102D000040933D0450933E04AACDB70188E00E9451
:102D1000910270E060E0B4CD0E94D6030091690397
:102D200010916A0320916B0330916C03C00ED11E89
:102D3000E21EF31E6C157D058E059F0508F471CE0D
:102D40008DE00E94FE0161E0892B09F060E08DE0DA
:102D50000E9427020E94D6036093690370936A035E
:102D600080936B0390936C035CCE32E4E316F10422
:102D700009F4EECA7FCA0E94FD1608F481E00895A6
:102D8000E89409C097FB3EF4909580957095619505
:102D90007F4F8F4F9F4F9923A9F0F92F96E9BB27BB
:102DA0009395F695879577956795B795F111F8CF37
:102DB000FAF4BB0F11F460FF1BC06F5F7F4F8F4FA2
:102DC0009F4F16C0882311F096E911C0772321F098
:102DD0009EE8872F762F05C0662371F096E8862F30
:102DE00070E060E02AF09A95660F771F881FDAF787
:102DF000880F9695879597F90895990F0008550FB4
:102E0000AA0BE0E8FEEF16161706E807F907C0F070
:102E100012161306E407F50798F0621B730B840B78
:102E2000950B39F40A2661F0232B242B252B21F452
:102E300008950A2609F4A140A6958FEF811D811DF2
:102E400008950E9434170C94A5170E94971738F024
:102E50000E949E1720F0952311F00C948E170C946D
:102E6000941711240C94D9170E94B61770F3959FEC
:102E7000C1F3950F50E0551F629FF001729FBB2771
:102E8000F00DB11D639FAA27F00DB11DAA1F649F0D
:102E90006627B00DA11D661F829F2227B00DA11DC0
:102EA000621F739FB00DA11D621F839FA00D611D46
:102EB000221F749F3327A00D611D231F849F600D67
:102EC000211D822F762F6A2F11249F5750409AF090
:102ED000F1F088234AF0EE0FFF1FBB1F661F771F1C
:102EE000881F91505040A9F79E3F510580F00C94E7
:102EF0008E170C94D9175F3FE4F3983ED4F3869570
:102F000077956795B795F795E7959F5FC1F7FE2B86
:102F1000880F911D9695879597F9089597F99F6762
:102F200080E870E060E008959FEF80EC0895002451
:102F30000A941616170618060906089500240A941E
:102F400012161306140605060895092E0394000CA4
:102F500011F4882352F0BB0F40F4BF2B11F460FF33
:102F600004C06F5F7F4F8F4F9F4F089557FD90585C
:102F7000440F551F59F05F3F71F04795880F97FB3D
:102F8000991F61F09F3F79F08795089512161306F7
:102F90001406551FF2CF4695F1DF08C01616170626
:102FA0001806991FF1CF869571056105089408955B
:102FB000E894BB2766277727CB0197F90895F999FD
:102FC000FECF92BD81BDF89A992780B50895262F2E
:102FD000F999FECF1FBA92BD81BD20BD0FB6F894FE
:102FE000FA9AF99A0FBE019608950E940018A59FBB
:102FF000900DB49F900DA49F800D911D11240895F4
:10300000A29FB001B39FC001A39F700D811D112429
:10301000911DB29F700D811D1124911D089597FB84
:10302000072E16F4009407D077FD09D00E946C1883
:1030300007FC05D03EF4909581959F4F08957095BB
:1030400061957F4F0895A1E21A2EAA1BBB1BFD01BB
:103050000DC0AA1FBB1FEE1FFF1FA217B307E40777
:10306000F50720F0A21BB30BE40BF50B661F771FCF
:10307000881F991F1A9469F76095709580959095AF
:103080009B01AC01BD01CF010895052E97FB1EF4F5
:1030900000940E945C1857FD07D00E94231807FC7B
:1030A00003D04EF40C945C185095409530952195C2
:1030B0003F4F4F4F5F4F0895909580957095619564
:1030C0007F4F8F4F9F4F0895EE0FFF1F881F8BBFBD
:1030D0000790F691E02D1994AA1BBB1B51E107C084
:1030E000AA1FBB1FA617B70710F0A61BB70B881F98
:1030F000991F5A95A9F780959095BC01CD01089527
:103100005058BB27AA270E9498180C94A5170E9414
:10311000971738F00E949E1720F039F49F3F19F45A
:1031200026F40C9494170EF4E095E7FB0C948E179C
:10313000E92F0E94B61758F3BA176207730784077E
:10314000950720F079F4A6F50C94D8170EF4E095C5
:103150000B2EBA2FA02D0B01B90190010C01CA0151
:10316000A0011124FF27591B99F0593F50F4503EFC
:1031700068F11A16F040A22F232F342F4427585FEE
:10318000F3CF469537952795A795F0405395C9F706
:103190007EF41F16BA0B620B730B840BBAF09150BE
:1031A000A1F0FF0FBB1F661F771F881FC2F70EC05D
:1031B000BA0F621F731F841F48F487957795679530
:1031C000B795F7959E3F08F0B0CF9395880F08F01C
:1031D0009927EE0F9795879508950E9401190C94F1
:1031E000A5170E949E1758F00E94971740F029F4E7
:1031F0005F3F29F00C948E1751110C94D9170C9441
:1032000094170E94B61768F39923B1F3552391F3ED
:10321000951B550BBB27AA2762177307840738F045
:103220009F5F5F4F220F331F441FAA1FA9F335D0A2
:103230000E2E3AF0E0E832D091505040E695001C56
:10324000CAF72BD0FE2F29D0660F771F881FBB1F10
:10325000261737074807AB07B0E809F0BB0B802DEE
:10326000BF01FF2793585F4F3AF09E3F510578F01A
:103270000C948E170C94D9175F3FE4F3983ED4F367
:10328000869577956795B795F7959F5FC9F7880FEE
:10329000911D9695879597F90895E1E0660F771F40
:1032A000881FBB1F621773078407BA0720F0621BD1
:1032B000730B840BBA0BEE1F88F7E09508950E94FC
:1032C00066196894B1110C94D91708950E94BE171D
:1032D00088F09F5798F0B92F9927B751B0F0E1F0D7
:1032E000660F771F881F991F1AF0BA95C9F714C087
:1032F000B13091F00E94D817B1E008950C94D8171E
:10330000672F782F8827B85F39F0B93FCCF38695BF
:1033100077956795B395D9F73EF49095809570951C
:1033200061957F4F8F4F9F4F08950E94FD1608F4BF
:103330008FEF08950E94FD16880B990B08950F9347
:103340001F93CF93DF938230910510F482E090E0D9
:10335000E0916404F091650430E020E0B0E0A0E08A
:10336000309799F42115310509F44AC0281B390B0F
:1033700024303105D8F58A819B816115710589F169
:10338000FB0193838283FE0111C040815181028140
:10339000138148175907E0F04817590799F4109717
:1033A00061F012960C93129713961C933296CF01EC
:1033B000DF91CF911F910F910895009364041093B2
:1033C0006504F4CF2115310551F04217530738F049
:1033D000A901DB019A01BD01DF01F801C1CFEF01B5
:1033E000F9CF9093650480936404CDCFFE01E20F82
:1033F000F31F819391932250310939832883D7CFCA
:103400002091620430916304232B41F42091270220
:1034100030912802309363042093620420912502A6
:10342000309126022115310541F42DB73EB7409168
:10343000290250912A02241B350BE0916204F0917D
:103440006304E217F307A0F42E1B3F0B281739077C
:1034500078F0AC014E5F5F4F2417350748F04E0FF0
:103460005F1F5093630440936204819391939FCFB5
:10347000F0E0E0E09CCFCF93DF930097E9F0FC0110
:10348000329713821282A0916404B0916504ED0119
:1034900030E020E01097A1F420813181820F931F4A
:1034A00020916204309163042817390709F061C044
:1034B000F0936304E0936204DF91CF910895EA01F1
:1034C000CE17DF07E8F54A815B819E014115510562
:1034D000B1F7E901FB83EA8349915991C40FD51FE4
:1034E000EC17FD0761F4808191810296840F951F8E
:1034F000E90199838883828193819B838A83F0E0A9
:10350000E0E012968D919C9113970097B9F52D915B
:103510003C911197CD010296820F931F2091620476
:10352000309163042817390739F6309751F5109216
:10353000650410926404B0936304A0936204BCCF4A
:10354000D383C28340815181840F951FC817D90747
:1035500061F44E5F5F4F88819981480F591F5183F5
:1035600040838A819B81938382832115310509F0F1
:10357000B0CFF0936504E09364049ECFFD01DC01BD
:10358000C0CF13821282D7CF4F925F926F927F92F9
:103590008F929F92AF92BF92CF92DF92EF92FF9263
:1035A0000F931F93CF93DF938C01009799F4CB0176
:1035B000DF91CF911F910F91FF90EF90DF90CF900F
:1035C000BF90AF909F908F907F906F905F904F9043
:1035D0000C949F19FC01E60FF71F9C012250310942
:1035E000E217F30708F4AEC0D901CD91DC91119731
:1035F000C617D70720F1C530D10578F0CE01049762
:103600008617970750F0C61BD70B2297C193D1930B
:103610006D937C93CF010E943B1AC801DF91CF913B
:103620001F910F91FF90EF90DF90CF90BF90AF90E0
:103630009F908F907F906F905F904F9008955B0167
:10364000AC1ABD0A4C018C0E9D1EA0916404B09171
:103650006504512C412CF12CE12C109731F580910F
:103660006204909163048815990509F05CC04616C0
:10367000570608F058C080912502909126020097C5
:1036800041F48DB79EB74091290250912A02841BC4
:10369000950BE817F90708F055C0F0936304E09321
:1036A0006204F90171836083B8CF8D919C91119769
:1036B00012966C90129713967C901397A815B905E3
:1036C00059F56C0142E0C40ED11CCA14DB0420F190
:1036D000AC014A195B09DA011296159780F06282F3
:1036E000738251834083D9016D937C93E114F1047B
:1036F00071F0D7011396FC93EE9312978ECF22961A
:103700008C0F9D1FF90191838083F301EFCFF0931C
:103710006504E093640481CF4816590608F42C012F
:103720007D01D3019ACFCB010E949F197C010097A4
:1037300049F0AE01B8010E94A51BC8010E943B1AC6
:1037400087016BCF10E000E068CFFB01DC0102C015
:1037500001900D9241505040D8F70895FB01DC01D3
:103760008D91019080190110D9F3990B0895FB01F7
:10377000DC0101900D920020E1F70895F894FFCF4D
:103780008204820482048204820482048204820409
:1037900009560000FFE80300006400000001000774
:1037A000000000803F000066048000000000001858
:1037B000068304B0046506E005BF040505000000AB
:1037C00000B606C30900000000B606C1096E616EAE
:1037D00000696E66006F766600444952454354495D
:1037E0004F4E09504F534954494F4E094C4F414495
:1037F000094355525F5350454544095345545F535F
:1038000050454544095354415445094D4F544F5276
:103810005F465F414D5053094D4F544F525F525FC9
:10382000414D50530942545F55500942545F444F33
:10383000574E0942545F544152450942545F415525
:103840005809494E5F564F4C545309564D5F564FD9
:103850004C5453094C4F4F505F540A0043414C495C
:1038600042524154494F4E205245534554205749E6
:10387000544820425554544F4E5320434F4D424FCD
:10388000000D0A006567696E0061726500203D3DAC
:103890003D3D3D3D3D3D3D2054415245203D3D3D5A
:0A38A0003D3D3D3D3D3D3D0009006A
:00000001FF
